{
	"contracts/DonateCrypto.sol": {
		"DonateCrypto": {
			"abi": [
				{
					"inputs": [
						{
							"internalType": "string",
							"name": "title",
							"type": "string"
						},
						{
							"internalType": "string",
							"name": "description",
							"type": "string"
						},
						{
							"internalType": "string",
							"name": "videoUrl",
							"type": "string"
						},
						{
							"internalType": "string",
							"name": "imageUrl",
							"type": "string"
						}
					],
					"name": "addCampaign",
					"outputs": [],
					"stateMutability": "nonpayable",
					"type": "function"
				},
				{
					"inputs": [
						{
							"internalType": "uint256",
							"name": "",
							"type": "uint256"
						}
					],
					"name": "campaigns",
					"outputs": [
						{
							"internalType": "address",
							"name": "author",
							"type": "address"
						},
						{
							"internalType": "string",
							"name": "title",
							"type": "string"
						},
						{
							"internalType": "string",
							"name": "description",
							"type": "string"
						},
						{
							"internalType": "string",
							"name": "videoUrl",
							"type": "string"
						},
						{
							"internalType": "string",
							"name": "imageUrl",
							"type": "string"
						},
						{
							"internalType": "uint256",
							"name": "balance",
							"type": "uint256"
						},
						{
							"internalType": "bool",
							"name": "active",
							"type": "bool"
						}
					],
					"stateMutability": "view",
					"type": "function"
				},
				{
					"inputs": [
						{
							"internalType": "uint256",
							"name": "id",
							"type": "uint256"
						}
					],
					"name": "donate",
					"outputs": [],
					"stateMutability": "payable",
					"type": "function"
				},
				{
					"inputs": [],
					"name": "fee",
					"outputs": [
						{
							"internalType": "uint256",
							"name": "",
							"type": "uint256"
						}
					],
					"stateMutability": "view",
					"type": "function"
				},
				{
					"inputs": [],
					"name": "nextId",
					"outputs": [
						{
							"internalType": "uint256",
							"name": "",
							"type": "uint256"
						}
					],
					"stateMutability": "view",
					"type": "function"
				},
				{
					"inputs": [
						{
							"internalType": "uint256",
							"name": "id",
							"type": "uint256"
						}
					],
					"name": "withdraw",
					"outputs": [],
					"stateMutability": "nonpayable",
					"type": "function"
				}
			],
			"devdoc": {
				"kind": "dev",
				"methods": {},
				"version": 1
			},
			"evm": {
				"assembly": "    /* \"contracts/DonateCrypto.sol\":236:1828  contract DonateCrypto {... */\n  mstore(0x40, 0x80)\n    /* \"contracts/DonateCrypto.sol\":288:291  100 */\n  0x64\n    /* \"contracts/DonateCrypto.sol\":267:291  uint256 public fee = 100 */\n  0x00\n  sstore\n    /* \"contracts/DonateCrypto.sol\":322:323  0 */\n  0x00\n    /* \"contracts/DonateCrypto.sol\":298:323  uint256 public nextId = 0 */\n  0x01\n  sstore\n    /* \"contracts/DonateCrypto.sol\":236:1828  contract DonateCrypto {... */\n  callvalue\n  dup1\n  iszero\n  tag_1\n  jumpi\n  0x00\n  dup1\n  revert\ntag_1:\n  pop\n  dataSize(sub_0)\n  dup1\n  dataOffset(sub_0)\n  0x00\n  codecopy\n  0x00\n  return\nstop\n\nsub_0: assembly {\n        /* \"contracts/DonateCrypto.sol\":236:1828  contract DonateCrypto {... */\n      mstore(0x40, 0x80)\n      jumpi(tag_1, lt(calldatasize, 0x04))\n      shr(0xe0, calldataload(0x00))\n      dup1\n      0x141961bc\n      eq\n      tag_2\n      jumpi\n      dup1\n      0x2e1a7d4d\n      eq\n      tag_3\n      jumpi\n      dup1\n      0x61b8ce8c\n      eq\n      tag_4\n      jumpi\n      dup1\n      0xddca3f43\n      eq\n      tag_5\n      jumpi\n      dup1\n      0xec671486\n      eq\n      tag_6\n      jumpi\n      dup1\n      0xf14faf6f\n      eq\n      tag_7\n      jumpi\n    tag_1:\n      0x00\n      dup1\n      revert\n        /* \"contracts/DonateCrypto.sol\":332:378  mapping (uint256 => Campaign) public campaigns */\n    tag_2:\n      callvalue\n      dup1\n      iszero\n      tag_8\n      jumpi\n      0x00\n      dup1\n      revert\n    tag_8:\n      pop\n      tag_9\n      tag_10\n      calldatasize\n      0x04\n      tag_11\n      jump\t// in\n    tag_10:\n      tag_12\n      jump\t// in\n    tag_9:\n      mload(0x40)\n      tag_13\n      swap8\n      swap7\n      swap6\n      swap5\n      swap4\n      swap3\n      swap2\n      swap1\n      tag_14\n      jump\t// in\n    tag_13:\n      mload(0x40)\n      dup1\n      swap2\n      sub\n      swap1\n      return\n        /* \"contracts/DonateCrypto.sol\":1202:1825  function withdraw(uint256 id) public {... */\n    tag_3:\n      callvalue\n      dup1\n      iszero\n      tag_15\n      jumpi\n      0x00\n      dup1\n      revert\n    tag_15:\n      pop\n      tag_16\n      tag_17\n      calldatasize\n      0x04\n      tag_11\n      jump\t// in\n    tag_17:\n      tag_18\n      jump\t// in\n    tag_16:\n      stop\n        /* \"contracts/DonateCrypto.sol\":298:323  uint256 public nextId = 0 */\n    tag_4:\n      callvalue\n      dup1\n      iszero\n      tag_19\n      jumpi\n      0x00\n      dup1\n      revert\n    tag_19:\n      pop\n      tag_20\n      sload(0x01)\n      dup2\n      jump\n    tag_20:\n      mload(0x40)\n        /* \"#utility.yul\":1607:1632   */\n      swap1\n      dup2\n      mstore\n        /* \"#utility.yul\":1595:1597   */\n      0x20\n        /* \"#utility.yul\":1580:1598   */\n      add\n        /* \"contracts/DonateCrypto.sol\":298:323  uint256 public nextId = 0 */\n      tag_13\n        /* \"#utility.yul\":1461:1638   */\n      jump\n        /* \"contracts/DonateCrypto.sol\":267:291  uint256 public fee = 100 */\n    tag_5:\n      callvalue\n      dup1\n      iszero\n      tag_24\n      jumpi\n      0x00\n      dup1\n      revert\n    tag_24:\n      pop\n      tag_20\n      sload(0x00)\n      dup2\n      jump\n        /* \"contracts/DonateCrypto.sol\":404:892  function addCampaign(string calldata title, string calldata description, string calldata videoUrl, string calldata imageUrl) public {... */\n    tag_6:\n      callvalue\n      dup1\n      iszero\n      tag_28\n      jumpi\n      0x00\n      dup1\n      revert\n    tag_28:\n      pop\n      tag_16\n      tag_30\n      calldatasize\n      0x04\n      tag_31\n      jump\t// in\n    tag_30:\n      tag_32\n      jump\t// in\n        /* \"contracts/DonateCrypto.sol\":900:1194  function donate(uint256 id) public payable {... */\n    tag_7:\n      tag_16\n      tag_34\n      calldatasize\n      0x04\n      tag_11\n      jump\t// in\n    tag_34:\n      tag_35\n      jump\t// in\n        /* \"contracts/DonateCrypto.sol\":332:378  mapping (uint256 => Campaign) public campaigns */\n    tag_12:\n      mstore(0x20, 0x02)\n      0x00\n      swap1\n      dup2\n      mstore\n      0x40\n      swap1\n      keccak256\n      dup1\n      sload\n      0x01\n      dup3\n      add\n      dup1\n      sload\n      sub(shl(0xa0, 0x01), 0x01)\n      swap1\n      swap3\n      and\n      swap3\n      swap2\n      tag_36\n      swap1\n      tag_37\n      jump\t// in\n    tag_36:\n      dup1\n      0x1f\n      add\n      0x20\n      dup1\n      swap2\n      div\n      mul\n      0x20\n      add\n      mload(0x40)\n      swap1\n      dup2\n      add\n      0x40\n      mstore\n      dup1\n      swap3\n      swap2\n      swap1\n      dup2\n      dup2\n      mstore\n      0x20\n      add\n      dup3\n      dup1\n      sload\n      tag_38\n      swap1\n      tag_37\n      jump\t// in\n    tag_38:\n      dup1\n      iszero\n      tag_39\n      jumpi\n      dup1\n      0x1f\n      lt\n      tag_40\n      jumpi\n      0x0100\n      dup1\n      dup4\n      sload\n      div\n      mul\n      dup4\n      mstore\n      swap2\n      0x20\n      add\n      swap2\n      jump(tag_39)\n    tag_40:\n      dup3\n      add\n      swap2\n      swap1\n      0x00\n      mstore\n      keccak256(0x00, 0x20)\n      swap1\n    tag_41:\n      dup2\n      sload\n      dup2\n      mstore\n      swap1\n      0x01\n      add\n      swap1\n      0x20\n      add\n      dup1\n      dup4\n      gt\n      tag_41\n      jumpi\n      dup3\n      swap1\n      sub\n      0x1f\n      and\n      dup3\n      add\n      swap2\n    tag_39:\n      pop\n      pop\n      pop\n      pop\n      pop\n      swap1\n      dup1\n      0x02\n      add\n      dup1\n      sload\n      tag_42\n      swap1\n      tag_37\n      jump\t// in\n    tag_42:\n      dup1\n      0x1f\n      add\n      0x20\n      dup1\n      swap2\n      div\n      mul\n      0x20\n      add\n      mload(0x40)\n      swap1\n      dup2\n      add\n      0x40\n      mstore\n      dup1\n      swap3\n      swap2\n      swap1\n      dup2\n      dup2\n      mstore\n      0x20\n      add\n      dup3\n      dup1\n      sload\n      tag_43\n      swap1\n      tag_37\n      jump\t// in\n    tag_43:\n      dup1\n      iszero\n      tag_44\n      jumpi\n      dup1\n      0x1f\n      lt\n      tag_45\n      jumpi\n      0x0100\n      dup1\n      dup4\n      sload\n      div\n      mul\n      dup4\n      mstore\n      swap2\n      0x20\n      add\n      swap2\n      jump(tag_44)\n    tag_45:\n      dup3\n      add\n      swap2\n      swap1\n      0x00\n      mstore\n      keccak256(0x00, 0x20)\n      swap1\n    tag_46:\n      dup2\n      sload\n      dup2\n      mstore\n      swap1\n      0x01\n      add\n      swap1\n      0x20\n      add\n      dup1\n      dup4\n      gt\n      tag_46\n      jumpi\n      dup3\n      swap1\n      sub\n      0x1f\n      and\n      dup3\n      add\n      swap2\n    tag_44:\n      pop\n      pop\n      pop\n      pop\n      pop\n      swap1\n      dup1\n      0x03\n      add\n      dup1\n      sload\n      tag_47\n      swap1\n      tag_37\n      jump\t// in\n    tag_47:\n      dup1\n      0x1f\n      add\n      0x20\n      dup1\n      swap2\n      div\n      mul\n      0x20\n      add\n      mload(0x40)\n      swap1\n      dup2\n      add\n      0x40\n      mstore\n      dup1\n      swap3\n      swap2\n      swap1\n      dup2\n      dup2\n      mstore\n      0x20\n      add\n      dup3\n      dup1\n      sload\n      tag_48\n      swap1\n      tag_37\n      jump\t// in\n    tag_48:\n      dup1\n      iszero\n      tag_49\n      jumpi\n      dup1\n      0x1f\n      lt\n      tag_50\n      jumpi\n      0x0100\n      dup1\n      dup4\n      sload\n      div\n      mul\n      dup4\n      mstore\n      swap2\n      0x20\n      add\n      swap2\n      jump(tag_49)\n    tag_50:\n      dup3\n      add\n      swap2\n      swap1\n      0x00\n      mstore\n      keccak256(0x00, 0x20)\n      swap1\n    tag_51:\n      dup2\n      sload\n      dup2\n      mstore\n      swap1\n      0x01\n      add\n      swap1\n      0x20\n      add\n      dup1\n      dup4\n      gt\n      tag_51\n      jumpi\n      dup3\n      swap1\n      sub\n      0x1f\n      and\n      dup3\n      add\n      swap2\n    tag_49:\n      pop\n      pop\n      pop\n      pop\n      pop\n      swap1\n      dup1\n      0x04\n      add\n      dup1\n      sload\n      tag_52\n      swap1\n      tag_37\n      jump\t// in\n    tag_52:\n      dup1\n      0x1f\n      add\n      0x20\n      dup1\n      swap2\n      div\n      mul\n      0x20\n      add\n      mload(0x40)\n      swap1\n      dup2\n      add\n      0x40\n      mstore\n      dup1\n      swap3\n      swap2\n      swap1\n      dup2\n      dup2\n      mstore\n      0x20\n      add\n      dup3\n      dup1\n      sload\n      tag_53\n      swap1\n      tag_37\n      jump\t// in\n    tag_53:\n      dup1\n      iszero\n      tag_54\n      jumpi\n      dup1\n      0x1f\n      lt\n      tag_55\n      jumpi\n      0x0100\n      dup1\n      dup4\n      sload\n      div\n      mul\n      dup4\n      mstore\n      swap2\n      0x20\n      add\n      swap2\n      jump(tag_54)\n    tag_55:\n      dup3\n      add\n      swap2\n      swap1\n      0x00\n      mstore\n      keccak256(0x00, 0x20)\n      swap1\n    tag_56:\n      dup2\n      sload\n      dup2\n      mstore\n      swap1\n      0x01\n      add\n      swap1\n      0x20\n      add\n      dup1\n      dup4\n      gt\n      tag_56\n      jumpi\n      dup3\n      swap1\n      sub\n      0x1f\n      and\n      dup3\n      add\n      swap2\n    tag_54:\n      pop\n      pop\n      pop\n      pop\n      0x05\n      dup4\n      add\n      sload\n      0x06\n      swap1\n      swap4\n      add\n      sload\n      swap2\n      swap3\n      swap2\n      0xff\n      and\n      swap1\n      pop\n      dup8\n      jump\t// out\n        /* \"contracts/DonateCrypto.sol\":1202:1825  function withdraw(uint256 id) public {... */\n    tag_18:\n        /* \"contracts/DonateCrypto.sol\":1250:1274  Campaign memory campaign */\n      0x00\n        /* \"contracts/DonateCrypto.sol\":1277:1290  campaigns[id] */\n      dup2\n      dup2\n      mstore\n        /* \"contracts/DonateCrypto.sol\":1277:1286  campaigns */\n      0x02\n        /* \"contracts/DonateCrypto.sol\":1277:1290  campaigns[id] */\n      0x20\n      swap1\n      dup2\n      mstore\n      0x40\n      dup1\n      dup4\n      keccak256\n        /* \"contracts/DonateCrypto.sol\":1250:1290  Campaign memory campaign = campaigns[id] */\n      dup2\n      mload\n      0xe0\n      dup2\n      add\n      swap1\n      swap3\n      mstore\n      dup1\n      sload\n      sub(shl(0xa0, 0x01), 0x01)\n      and\n      dup3\n      mstore\n      0x01\n      dup2\n      add\n      dup1\n      sload\n      swap3\n      swap4\n        /* \"contracts/DonateCrypto.sol\":1277:1290  campaigns[id] */\n      swap2\n      swap3\n        /* \"contracts/DonateCrypto.sol\":1250:1290  Campaign memory campaign = campaigns[id] */\n      swap2\n      dup5\n      add\n      swap2\n      tag_58\n      swap1\n      tag_37\n      jump\t// in\n    tag_58:\n      dup1\n      0x1f\n      add\n      0x20\n      dup1\n      swap2\n      div\n      mul\n      0x20\n      add\n      mload(0x40)\n      swap1\n      dup2\n      add\n      0x40\n      mstore\n      dup1\n      swap3\n      swap2\n      swap1\n      dup2\n      dup2\n      mstore\n      0x20\n      add\n      dup3\n      dup1\n      sload\n      tag_59\n      swap1\n      tag_37\n      jump\t// in\n    tag_59:\n      dup1\n      iszero\n      tag_60\n      jumpi\n      dup1\n      0x1f\n      lt\n      tag_61\n      jumpi\n      0x0100\n      dup1\n      dup4\n      sload\n      div\n      mul\n      dup4\n      mstore\n      swap2\n      0x20\n      add\n      swap2\n      jump(tag_60)\n    tag_61:\n      dup3\n      add\n      swap2\n      swap1\n      0x00\n      mstore\n      keccak256(0x00, 0x20)\n      swap1\n    tag_62:\n      dup2\n      sload\n      dup2\n      mstore\n      swap1\n      0x01\n      add\n      swap1\n      0x20\n      add\n      dup1\n      dup4\n      gt\n      tag_62\n      jumpi\n      dup3\n      swap1\n      sub\n      0x1f\n      and\n      dup3\n      add\n      swap2\n    tag_60:\n      pop\n      pop\n      pop\n      pop\n      pop\n      dup2\n      mstore\n      0x20\n      add\n      0x02\n      dup3\n      add\n      dup1\n      sload\n      tag_63\n      swap1\n      tag_37\n      jump\t// in\n    tag_63:\n      dup1\n      0x1f\n      add\n      0x20\n      dup1\n      swap2\n      div\n      mul\n      0x20\n      add\n      mload(0x40)\n      swap1\n      dup2\n      add\n      0x40\n      mstore\n      dup1\n      swap3\n      swap2\n      swap1\n      dup2\n      dup2\n      mstore\n      0x20\n      add\n      dup3\n      dup1\n      sload\n      tag_64\n      swap1\n      tag_37\n      jump\t// in\n    tag_64:\n      dup1\n      iszero\n      tag_65\n      jumpi\n      dup1\n      0x1f\n      lt\n      tag_66\n      jumpi\n      0x0100\n      dup1\n      dup4\n      sload\n      div\n      mul\n      dup4\n      mstore\n      swap2\n      0x20\n      add\n      swap2\n      jump(tag_65)\n    tag_66:\n      dup3\n      add\n      swap2\n      swap1\n      0x00\n      mstore\n      keccak256(0x00, 0x20)\n      swap1\n    tag_67:\n      dup2\n      sload\n      dup2\n      mstore\n      swap1\n      0x01\n      add\n      swap1\n      0x20\n      add\n      dup1\n      dup4\n      gt\n      tag_67\n      jumpi\n      dup3\n      swap1\n      sub\n      0x1f\n      and\n      dup3\n      add\n      swap2\n    tag_65:\n      pop\n      pop\n      pop\n      pop\n      pop\n      dup2\n      mstore\n      0x20\n      add\n      0x03\n      dup3\n      add\n      dup1\n      sload\n      tag_68\n      swap1\n      tag_37\n      jump\t// in\n    tag_68:\n      dup1\n      0x1f\n      add\n      0x20\n      dup1\n      swap2\n      div\n      mul\n      0x20\n      add\n      mload(0x40)\n      swap1\n      dup2\n      add\n      0x40\n      mstore\n      dup1\n      swap3\n      swap2\n      swap1\n      dup2\n      dup2\n      mstore\n      0x20\n      add\n      dup3\n      dup1\n      sload\n      tag_69\n      swap1\n      tag_37\n      jump\t// in\n    tag_69:\n      dup1\n      iszero\n      tag_70\n      jumpi\n      dup1\n      0x1f\n      lt\n      tag_71\n      jumpi\n      0x0100\n      dup1\n      dup4\n      sload\n      div\n      mul\n      dup4\n      mstore\n      swap2\n      0x20\n      add\n      swap2\n      jump(tag_70)\n    tag_71:\n      dup3\n      add\n      swap2\n      swap1\n      0x00\n      mstore\n      keccak256(0x00, 0x20)\n      swap1\n    tag_72:\n      dup2\n      sload\n      dup2\n      mstore\n      swap1\n      0x01\n      add\n      swap1\n      0x20\n      add\n      dup1\n      dup4\n      gt\n      tag_72\n      jumpi\n      dup3\n      swap1\n      sub\n      0x1f\n      and\n      dup3\n      add\n      swap2\n    tag_70:\n      pop\n      pop\n      pop\n      pop\n      pop\n      dup2\n      mstore\n      0x20\n      add\n      0x04\n      dup3\n      add\n      dup1\n      sload\n      tag_73\n      swap1\n      tag_37\n      jump\t// in\n    tag_73:\n      dup1\n      0x1f\n      add\n      0x20\n      dup1\n      swap2\n      div\n      mul\n      0x20\n      add\n      mload(0x40)\n      swap1\n      dup2\n      add\n      0x40\n      mstore\n      dup1\n      swap3\n      swap2\n      swap1\n      dup2\n      dup2\n      mstore\n      0x20\n      add\n      dup3\n      dup1\n      sload\n      tag_74\n      swap1\n      tag_37\n      jump\t// in\n    tag_74:\n      dup1\n      iszero\n      tag_75\n      jumpi\n      dup1\n      0x1f\n      lt\n      tag_76\n      jumpi\n      0x0100\n      dup1\n      dup4\n      sload\n      div\n      mul\n      dup4\n      mstore\n      swap2\n      0x20\n      add\n      swap2\n      jump(tag_75)\n    tag_76:\n      dup3\n      add\n      swap2\n      swap1\n      0x00\n      mstore\n      keccak256(0x00, 0x20)\n      swap1\n    tag_77:\n      dup2\n      sload\n      dup2\n      mstore\n      swap1\n      0x01\n      add\n      swap1\n      0x20\n      add\n      dup1\n      dup4\n      gt\n      tag_77\n      jumpi\n      dup3\n      swap1\n      sub\n      0x1f\n      and\n      dup3\n      add\n      swap2\n    tag_75:\n      pop\n      pop\n      pop\n      swap2\n      dup4\n      mstore\n      pop\n      pop\n      0x05\n      dup3\n      add\n      sload\n      0x20\n      dup3\n      add\n      mstore\n      0x06\n      swap1\n      swap2\n      add\n      sload\n      0xff\n      and\n      iszero\n      iszero\n      0x40\n      swap1\n      swap2\n      add\n      mstore\n        /* \"contracts/DonateCrypto.sol\":1309:1324  campaign.author */\n      dup1\n      mload\n        /* \"contracts/DonateCrypto.sol\":1250:1290  Campaign memory campaign = campaigns[id] */\n      swap1\n      swap2\n      pop\n      sub(shl(0xa0, 0x01), 0x01)\n        /* \"contracts/DonateCrypto.sol\":1309:1338  campaign.author == msg.sender */\n      and\n        /* \"contracts/DonateCrypto.sol\":1328:1338  msg.sender */\n      caller\n        /* \"contracts/DonateCrypto.sol\":1309:1338  campaign.author == msg.sender */\n      eq\n        /* \"contracts/DonateCrypto.sol\":1301:1373  require(campaign.author == msg.sender, \"You are not the campaign owner\") */\n      tag_78\n      jumpi\n      mload(0x40)\n      shl(0xe5, 0x461bcd)\n      dup2\n      mstore\n        /* \"#utility.yul\":3915:3917   */\n      0x20\n        /* \"contracts/DonateCrypto.sol\":1301:1373  require(campaign.author == msg.sender, \"You are not the campaign owner\") */\n      0x04\n      dup3\n      add\n        /* \"#utility.yul\":3897:3918   */\n      mstore\n        /* \"#utility.yul\":3954:3956   */\n      0x1e\n        /* \"#utility.yul\":3934:3952   */\n      0x24\n      dup3\n      add\n        /* \"#utility.yul\":3927:3957   */\n      mstore\n        /* \"#utility.yul\":3993:4025   */\n      0x596f7520617265206e6f74207468652063616d706169676e206f776e65720000\n        /* \"#utility.yul\":3973:3991   */\n      0x44\n      dup3\n      add\n        /* \"#utility.yul\":3966:4026   */\n      mstore\n        /* \"#utility.yul\":4043:4061   */\n      0x64\n      add\n        /* \"contracts/DonateCrypto.sol\":1301:1373  require(campaign.author == msg.sender, \"You are not the campaign owner\") */\n    tag_79:\n      mload(0x40)\n      dup1\n      swap2\n      sub\n      swap1\n      revert\n    tag_78:\n        /* \"contracts/DonateCrypto.sol\":1392:1407  campaign.active */\n      0xc0\n      dup2\n      add\n      mload\n        /* \"contracts/DonateCrypto.sol\":1392:1415  campaign.active == true */\n      iszero\n      iszero\n        /* \"contracts/DonateCrypto.sol\":1411:1415  true */\n      0x01\n        /* \"contracts/DonateCrypto.sol\":1392:1415  campaign.active == true */\n      eq\n        /* \"contracts/DonateCrypto.sol\":1384:1479  require(campaign.active == true, \"The campaign you are trying to withdraw is no longer active\") */\n      tag_81\n      jumpi\n      mload(0x40)\n      shl(0xe5, 0x461bcd)\n      dup2\n      mstore\n        /* \"#utility.yul\":4274:4276   */\n      0x20\n        /* \"contracts/DonateCrypto.sol\":1384:1479  require(campaign.active == true, \"The campaign you are trying to withdraw is no longer active\") */\n      0x04\n      dup3\n      add\n        /* \"#utility.yul\":4256:4277   */\n      mstore\n        /* \"#utility.yul\":4313:4315   */\n      0x3b\n        /* \"#utility.yul\":4293:4311   */\n      0x24\n      dup3\n      add\n        /* \"#utility.yul\":4286:4316   */\n      mstore\n        /* \"#utility.yul\":4352:4386   */\n      0x5468652063616d706169676e20796f752061726520747279696e6720746f2077\n        /* \"#utility.yul\":4332:4350   */\n      0x44\n      dup3\n      add\n        /* \"#utility.yul\":4325:4387   */\n      mstore\n        /* \"#utility.yul\":4423:4452   */\n      0x69746864726177206973206e6f206c6f6e676572206163746976650000000000\n        /* \"#utility.yul\":4403:4421   */\n      0x64\n      dup3\n      add\n        /* \"#utility.yul\":4396:4453   */\n      mstore\n        /* \"#utility.yul\":4470:4489   */\n      0x84\n      add\n        /* \"contracts/DonateCrypto.sol\":1384:1479  require(campaign.active == true, \"The campaign you are trying to withdraw is no longer active\") */\n      tag_79\n        /* \"#utility.yul\":4072:4495   */\n      jump\n        /* \"contracts/DonateCrypto.sol\":1384:1479  require(campaign.active == true, \"The campaign you are trying to withdraw is no longer active\") */\n    tag_81:\n        /* \"contracts/DonateCrypto.sol\":1517:1520  fee */\n      sload(0x00)\n        /* \"contracts/DonateCrypto.sol\":1498:1506  campaign */\n      dup2\n        /* \"contracts/DonateCrypto.sol\":1498:1514  campaign.balance */\n      0xa0\n      add\n      mload\n        /* \"contracts/DonateCrypto.sol\":1498:1520  campaign.balance > fee */\n      gt\n        /* \"contracts/DonateCrypto.sol\":1490:1567  require(campaign.balance > fee, \"This campaign does not have enough balance\") */\n      tag_84\n      jumpi\n      mload(0x40)\n      shl(0xe5, 0x461bcd)\n      dup2\n      mstore\n        /* \"#utility.yul\":4702:4704   */\n      0x20\n        /* \"contracts/DonateCrypto.sol\":1490:1567  require(campaign.balance > fee, \"This campaign does not have enough balance\") */\n      0x04\n      dup3\n      add\n        /* \"#utility.yul\":4684:4705   */\n      mstore\n        /* \"#utility.yul\":4741:4743   */\n      0x2a\n        /* \"#utility.yul\":4721:4739   */\n      0x24\n      dup3\n      add\n        /* \"#utility.yul\":4714:4744   */\n      mstore\n        /* \"#utility.yul\":4780:4814   */\n      0x546869732063616d706169676e20646f6573206e6f74206861766520656e6f75\n        /* \"#utility.yul\":4760:4778   */\n      0x44\n      dup3\n      add\n        /* \"#utility.yul\":4753:4815   */\n      mstore\n      shl(0xb0, 0x67682062616c616e6365)\n        /* \"#utility.yul\":4831:4849   */\n      0x64\n      dup3\n      add\n        /* \"#utility.yul\":4824:4864   */\n      mstore\n        /* \"#utility.yul\":4881:4900   */\n      0x84\n      add\n        /* \"contracts/DonateCrypto.sol\":1490:1567  require(campaign.balance > fee, \"This campaign does not have enough balance\") */\n      tag_79\n        /* \"#utility.yul\":4500:4906   */\n      jump\n        /* \"contracts/DonateCrypto.sol\":1490:1567  require(campaign.balance > fee, \"This campaign does not have enough balance\") */\n    tag_84:\n        /* \"contracts/DonateCrypto.sol\":1580:1604  uint256 amountToWithdraw */\n      0x00\n        /* \"contracts/DonateCrypto.sol\":1626:1629  fee */\n      dup1\n      sload\n        /* \"contracts/DonateCrypto.sol\":1607:1615  campaign */\n      dup3\n        /* \"contracts/DonateCrypto.sol\":1607:1623  campaign.balance */\n      0xa0\n      add\n      mload\n        /* \"contracts/DonateCrypto.sol\":1607:1629  campaign.balance - fee */\n      tag_87\n      swap2\n      swap1\n      tag_88\n      jump\t// in\n    tag_87:\n        /* \"contracts/DonateCrypto.sol\":1580:1629  uint256 amountToWithdraw = campaign.balance - fee */\n      swap1\n      pop\n        /* \"contracts/DonateCrypto.sol\":1641:1653  bool success */\n      0x00\n        /* \"contracts/DonateCrypto.sol\":1667:1675  campaign */\n      dup3\n        /* \"contracts/DonateCrypto.sol\":1667:1682  campaign.author */\n      0x00\n      add\n      mload\n      sub(shl(0xa0, 0x01), 0x01)\n        /* \"contracts/DonateCrypto.sol\":1659:1688  payable(campaign.author).call */\n      and\n        /* \"contracts/DonateCrypto.sol\":1696:1712  amountToWithdraw */\n      dup3\n        /* \"contracts/DonateCrypto.sol\":1659:1717  payable(campaign.author).call{value: amountToWithdraw}(\"\") */\n      mload(0x40)\n      0x00\n      mload(0x40)\n      dup1\n      dup4\n      sub\n      dup2\n      dup6\n      dup8\n      gas\n      call\n      swap3\n      pop\n      pop\n      pop\n      returndatasize\n      dup1\n      0x00\n      dup2\n      eq\n      tag_93\n      jumpi\n      mload(0x40)\n      swap2\n      pop\n      and(add(returndatasize, 0x3f), not(0x1f))\n      dup3\n      add\n      0x40\n      mstore\n      returndatasize\n      dup3\n      mstore\n      returndatasize\n      0x00\n      0x20\n      dup5\n      add\n      returndatacopy\n      jump(tag_92)\n    tag_93:\n      0x60\n      swap2\n      pop\n    tag_92:\n      pop\n        /* \"contracts/DonateCrypto.sol\":1640:1717  (bool success, ) = payable(campaign.author).call{value: amountToWithdraw}(\"\") */\n      pop\n      swap1\n      pop\n        /* \"contracts/DonateCrypto.sol\":1738:1745  success */\n      dup1\n        /* \"contracts/DonateCrypto.sol\":1730:1768  require(success, \"Failed to withdraw\") */\n      tag_94\n      jumpi\n      mload(0x40)\n      shl(0xe5, 0x461bcd)\n      dup2\n      mstore\n        /* \"#utility.yul\":5588:5590   */\n      0x20\n        /* \"contracts/DonateCrypto.sol\":1730:1768  require(success, \"Failed to withdraw\") */\n      0x04\n      dup3\n      add\n        /* \"#utility.yul\":5570:5591   */\n      mstore\n        /* \"#utility.yul\":5627:5629   */\n      0x12\n        /* \"#utility.yul\":5607:5625   */\n      0x24\n      dup3\n      add\n        /* \"#utility.yul\":5600:5630   */\n      mstore\n      shl(0x70, 0x4661696c656420746f207769746864726177)\n        /* \"#utility.yul\":5646:5664   */\n      0x44\n      dup3\n      add\n        /* \"#utility.yul\":5639:5687   */\n      mstore\n        /* \"#utility.yul\":5704:5722   */\n      0x64\n      add\n        /* \"contracts/DonateCrypto.sol\":1730:1768  require(success, \"Failed to withdraw\") */\n      tag_79\n        /* \"#utility.yul\":5386:5728   */\n      jump\n        /* \"contracts/DonateCrypto.sol\":1730:1768  require(success, \"Failed to withdraw\") */\n    tag_94:\n      pop\n      pop\n      pop\n        /* \"contracts/DonateCrypto.sol\":1812:1817  false */\n      0x00\n        /* \"contracts/DonateCrypto.sol\":1789:1802  campaigns[id] */\n      swap1\n      dup2\n      mstore\n        /* \"contracts/DonateCrypto.sol\":1789:1798  campaigns */\n      0x02\n        /* \"contracts/DonateCrypto.sol\":1789:1802  campaigns[id] */\n      0x20\n      mstore\n      0x40\n      swap1\n      keccak256\n        /* \"contracts/DonateCrypto.sol\":1789:1809  campaigns[id].active */\n      0x06\n      add\n        /* \"contracts/DonateCrypto.sol\":1789:1817  campaigns[id].active = false */\n      dup1\n      sload\n      not(0xff)\n      and\n      swap1\n      sstore\n        /* \"contracts/DonateCrypto.sol\":1202:1825  function withdraw(uint256 id) public {... */\n      jump\t// out\n        /* \"contracts/DonateCrypto.sol\":404:892  function addCampaign(string calldata title, string calldata description, string calldata videoUrl, string calldata imageUrl) public {... */\n    tag_32:\n        /* \"contracts/DonateCrypto.sol\":547:574  Campaign memory newCampaign */\n      tag_98\n      mload(0x40)\n      dup1\n      0xe0\n      add\n      0x40\n      mstore\n      dup1\n      and(sub(shl(0xa0, 0x01), 0x01), 0x00)\n      dup2\n      mstore\n      0x20\n      add\n      0x60\n      dup2\n      mstore\n      0x20\n      add\n      0x60\n      dup2\n      mstore\n      0x20\n      add\n      0x60\n      dup2\n      mstore\n      0x20\n      add\n      0x60\n      dup2\n      mstore\n      0x20\n      add\n      0x00\n      dup2\n      mstore\n      0x20\n      add\n      iszero(iszero(0x00))\n      dup2\n      mstore\n      pop\n      swap1\n      jump\n    tag_98:\n        /* \"contracts/DonateCrypto.sol\":605:610  title */\n      dup9\n      dup9\n        /* \"contracts/DonateCrypto.sol\":585:610  newCampaign.title = title */\n      dup1\n      dup1\n      0x1f\n      add\n      0x20\n      dup1\n      swap2\n      div\n      mul\n      0x20\n      add\n      mload(0x40)\n      swap1\n      dup2\n      add\n      0x40\n      mstore\n      dup1\n      swap4\n      swap3\n      swap2\n      swap1\n      dup2\n      dup2\n      mstore\n      0x20\n      add\n      dup4\n      dup4\n      dup1\n      dup3\n      dup5\n      calldatacopy\n      0x00\n      swap3\n      add\n      swap2\n      swap1\n      swap2\n      mstore\n      pop\n      pop\n      pop\n      pop\n        /* \"contracts/DonateCrypto.sol\":585:602  newCampaign.title */\n      0x20\n      dup1\n      dup4\n      add\n        /* \"contracts/DonateCrypto.sol\":585:610  newCampaign.title = title */\n      swap2\n      swap1\n      swap2\n      mstore\n        /* \"contracts/DonateCrypto.sol\":621:658  newCampaign.description = description */\n      0x40\n      dup1\n      mload\n        /* \"contracts/DonateCrypto.sol\":585:610  newCampaign.title = title */\n      0x1f\n        /* \"contracts/DonateCrypto.sol\":621:658  newCampaign.description = description */\n      dup10\n      add\n      dup4\n      swap1\n      div\n      dup4\n      mul\n      dup2\n      add\n      dup4\n      add\n      swap1\n      swap2\n      mstore\n      dup8\n      dup2\n      mstore\n      swap1\n        /* \"contracts/DonateCrypto.sol\":647:658  description */\n      dup9\n      swap1\n      dup9\n      swap1\n      dup2\n      swap1\n        /* \"contracts/DonateCrypto.sol\":621:658  newCampaign.description = description */\n      dup5\n      add\n        /* \"contracts/DonateCrypto.sol\":647:658  description */\n      dup4\n      dup3\n      dup1\n      dup3\n        /* \"contracts/DonateCrypto.sol\":621:658  newCampaign.description = description */\n      dup5\n      calldatacopy\n      0x00\n      swap3\n      add\n      swap2\n      swap1\n      swap2\n      mstore\n      pop\n      pop\n      pop\n      pop\n        /* \"contracts/DonateCrypto.sol\":621:644  newCampaign.description */\n      0x40\n      dup1\n      dup4\n      add\n        /* \"contracts/DonateCrypto.sol\":621:658  newCampaign.description = description */\n      swap2\n      swap1\n      swap2\n      mstore\n        /* \"contracts/DonateCrypto.sol\":669:700  newCampaign.videoUrl = videoUrl */\n      dup1\n      mload\n      0x20\n        /* \"contracts/DonateCrypto.sol\":621:658  newCampaign.description = description */\n      0x1f\n        /* \"contracts/DonateCrypto.sol\":669:700  newCampaign.videoUrl = videoUrl */\n      dup8\n      add\n      dup2\n      swap1\n      div\n      dup2\n      mul\n      dup3\n      add\n      dup2\n      add\n      swap1\n      swap3\n      mstore\n      dup6\n      dup2\n      mstore\n      swap1\n        /* \"contracts/DonateCrypto.sol\":692:700  videoUrl */\n      dup7\n      swap1\n      dup7\n      swap1\n      dup2\n      swap1\n        /* \"contracts/DonateCrypto.sol\":669:700  newCampaign.videoUrl = videoUrl */\n      dup5\n      add\n        /* \"contracts/DonateCrypto.sol\":692:700  videoUrl */\n      dup4\n      dup3\n      dup1\n      dup3\n        /* \"contracts/DonateCrypto.sol\":669:700  newCampaign.videoUrl = videoUrl */\n      dup5\n      calldatacopy\n      0x00\n      swap3\n      add\n      swap2\n      swap1\n      swap2\n      mstore\n      pop\n      pop\n      pop\n      pop\n        /* \"contracts/DonateCrypto.sol\":669:689  newCampaign.videoUrl */\n      0x60\n      dup3\n      add\n        /* \"contracts/DonateCrypto.sol\":669:700  newCampaign.videoUrl = videoUrl */\n      mstore\n        /* \"contracts/DonateCrypto.sol\":711:742  newCampaign.imageUrl = imageUrl */\n      0x40\n      dup1\n      mload\n      0x20\n        /* \"contracts/DonateCrypto.sol\":669:700  newCampaign.videoUrl = videoUrl */\n      0x1f\n        /* \"contracts/DonateCrypto.sol\":711:742  newCampaign.imageUrl = imageUrl */\n      dup6\n      add\n      dup2\n      swap1\n      div\n      dup2\n      mul\n      dup3\n      add\n      dup2\n      add\n      swap1\n      swap3\n      mstore\n      dup4\n      dup2\n      mstore\n      swap1\n        /* \"contracts/DonateCrypto.sol\":734:742  imageUrl */\n      dup5\n      swap1\n      dup5\n      swap1\n      dup2\n      swap1\n        /* \"contracts/DonateCrypto.sol\":711:742  newCampaign.imageUrl = imageUrl */\n      dup5\n      add\n        /* \"contracts/DonateCrypto.sol\":734:742  imageUrl */\n      dup4\n      dup3\n      dup1\n      dup3\n        /* \"contracts/DonateCrypto.sol\":711:742  newCampaign.imageUrl = imageUrl */\n      dup5\n      calldatacopy\n      0x00\n      swap3\n      add\n      dup3\n      swap1\n      mstore\n      pop\n        /* \"contracts/DonateCrypto.sol\":711:731  newCampaign.imageUrl */\n      0x80\n      dup7\n      add\n        /* \"contracts/DonateCrypto.sol\":711:742  newCampaign.imageUrl = imageUrl */\n      swap5\n      swap1\n      swap5\n      mstore\n      pop\n      pop\n        /* \"contracts/DonateCrypto.sol\":774:778  true */\n      0x01\n        /* \"contracts/DonateCrypto.sol\":753:771  newCampaign.active */\n      0xc0\n      dup5\n      add\n        /* \"contracts/DonateCrypto.sol\":753:778  newCampaign.active = true */\n      dup2\n      swap1\n      mstore\n        /* \"contracts/DonateCrypto.sol\":810:820  msg.sender */\n      caller\n        /* \"contracts/DonateCrypto.sol\":789:820  newCampaign.author = msg.sender */\n      dup5\n      mstore\n        /* \"contracts/DonateCrypto.sol\":834:842  nextId++ */\n      dup1\n      sload\n      swap3\n        /* \"contracts/DonateCrypto.sol\":774:778  true */\n      swap1\n      swap2\n      pop\n        /* \"contracts/DonateCrypto.sol\":834:842  nextId++ */\n      tag_100\n      dup4\n      tag_101\n      jump\t// in\n    tag_100:\n      swap1\n      swap2\n      sstore\n      pop\n      pop\n        /* \"contracts/DonateCrypto.sol\":863:869  nextId */\n      0x01\n      dup1\n      sload\n        /* \"contracts/DonateCrypto.sol\":853:870  campaigns[nextId] */\n      0x00\n      swap1\n      dup2\n      mstore\n        /* \"contracts/DonateCrypto.sol\":853:862  campaigns */\n      0x02\n        /* \"contracts/DonateCrypto.sol\":853:870  campaigns[nextId] */\n      0x20\n      swap1\n      dup2\n      mstore\n      0x40\n      swap1\n      swap2\n      keccak256\n        /* \"contracts/DonateCrypto.sol\":853:884  campaigns[nextId] = newCampaign */\n      dup4\n      mload\n      dup2\n      sload\n      not(sub(shl(0xa0, 0x01), 0x01))\n      and\n      sub(shl(0xa0, 0x01), 0x01)\n      swap1\n      swap2\n      and\n      or\n      dup2\n      sstore\n      swap1\n      dup4\n      add\n      mload\n      dup4\n      swap3\n      dup3\n      add\n      swap1\n      tag_102\n      swap1\n      dup3\n      tag_103\n      jump\t// in\n    tag_102:\n      pop\n      0x40\n      dup3\n      add\n      mload\n      0x02\n      dup3\n      add\n      swap1\n      tag_104\n      swap1\n      dup3\n      tag_103\n      jump\t// in\n    tag_104:\n      pop\n      0x60\n      dup3\n      add\n      mload\n      0x03\n      dup3\n      add\n      swap1\n      tag_105\n      swap1\n      dup3\n      tag_103\n      jump\t// in\n    tag_105:\n      pop\n      0x80\n      dup3\n      add\n      mload\n      0x04\n      dup3\n      add\n      swap1\n      tag_106\n      swap1\n      dup3\n      tag_103\n      jump\t// in\n    tag_106:\n      pop\n      0xa0\n      dup3\n      add\n      mload\n      0x05\n      dup3\n      add\n      sstore\n      0xc0\n      swap1\n      swap2\n      add\n      mload\n      0x06\n      swap1\n      swap2\n      add\n      dup1\n      sload\n      not(0xff)\n      and\n      swap2\n      iszero\n      iszero\n      swap2\n      swap1\n      swap2\n      or\n      swap1\n      sstore\n      pop\n      pop\n      pop\n      pop\n      pop\n      pop\n      pop\n      pop\n      pop\n        /* \"contracts/DonateCrypto.sol\":404:892  function addCampaign(string calldata title, string calldata description, string calldata videoUrl, string calldata imageUrl) public {... */\n      jump\t// out\n        /* \"contracts/DonateCrypto.sol\":900:1194  function donate(uint256 id) public payable {... */\n    tag_35:\n        /* \"contracts/DonateCrypto.sol\":974:975  0 */\n      0x00\n        /* \"contracts/DonateCrypto.sol\":962:971  msg.value */\n      callvalue\n        /* \"contracts/DonateCrypto.sol\":962:975  msg.value > 0 */\n      gt\n        /* \"contracts/DonateCrypto.sol\":954:1030  require(msg.value > 0, \"You must send a donation with value greater than 0\") */\n      tag_108\n      jumpi\n      mload(0x40)\n      shl(0xe5, 0x461bcd)\n      dup2\n      mstore\n        /* \"#utility.yul\":8331:8333   */\n      0x20\n        /* \"contracts/DonateCrypto.sol\":954:1030  require(msg.value > 0, \"You must send a donation with value greater than 0\") */\n      0x04\n      dup3\n      add\n        /* \"#utility.yul\":8313:8334   */\n      mstore\n        /* \"#utility.yul\":8370:8372   */\n      0x32\n        /* \"#utility.yul\":8350:8368   */\n      0x24\n      dup3\n      add\n        /* \"#utility.yul\":8343:8373   */\n      mstore\n        /* \"#utility.yul\":8409:8443   */\n      0x596f75206d7573742073656e64206120646f6e6174696f6e2077697468207661\n        /* \"#utility.yul\":8389:8407   */\n      0x44\n      dup3\n      add\n        /* \"#utility.yul\":8382:8444   */\n      mstore\n      shl(0x74, 0x06c75652067726561746572207468616e203)\n        /* \"#utility.yul\":8460:8478   */\n      0x64\n      dup3\n      add\n        /* \"#utility.yul\":8453:8501   */\n      mstore\n        /* \"#utility.yul\":8518:8537   */\n      0x84\n      add\n        /* \"contracts/DonateCrypto.sol\":954:1030  require(msg.value > 0, \"You must send a donation with value greater than 0\") */\n      tag_79\n        /* \"#utility.yul\":8129:8543   */\n      jump\n        /* \"contracts/DonateCrypto.sol\":954:1030  require(msg.value > 0, \"You must send a donation with value greater than 0\") */\n    tag_108:\n        /* \"contracts/DonateCrypto.sol\":1049:1062  campaigns[id] */\n      0x00\n      dup2\n      dup2\n      mstore\n        /* \"contracts/DonateCrypto.sol\":1049:1058  campaigns */\n      0x02\n        /* \"contracts/DonateCrypto.sol\":1049:1062  campaigns[id] */\n      0x20\n      mstore\n      0x40\n      swap1\n      keccak256\n        /* \"contracts/DonateCrypto.sol\":1049:1069  campaigns[id].active */\n      0x06\n      add\n      sload\n      0xff\n      and\n        /* \"contracts/DonateCrypto.sol\":1049:1077  campaigns[id].active == true */\n      iszero\n      iszero\n        /* \"contracts/DonateCrypto.sol\":1049:1069  campaigns[id].active */\n      0x01\n        /* \"contracts/DonateCrypto.sol\":1049:1077  campaigns[id].active == true */\n      eq\n        /* \"contracts/DonateCrypto.sol\":1041:1139  require(campaigns[id].active == true, \"The campaign you are trying to donate is no longer active\") */\n      tag_111\n      jumpi\n      mload(0x40)\n      shl(0xe5, 0x461bcd)\n      dup2\n      mstore\n        /* \"#utility.yul\":8750:8752   */\n      0x20\n        /* \"contracts/DonateCrypto.sol\":1041:1139  require(campaigns[id].active == true, \"The campaign you are trying to donate is no longer active\") */\n      0x04\n      dup3\n      add\n        /* \"#utility.yul\":8732:8753   */\n      mstore\n        /* \"#utility.yul\":8789:8791   */\n      0x39\n        /* \"#utility.yul\":8769:8787   */\n      0x24\n      dup3\n      add\n        /* \"#utility.yul\":8762:8792   */\n      mstore\n        /* \"#utility.yul\":8828:8862   */\n      0x5468652063616d706169676e20796f752061726520747279696e6720746f2064\n        /* \"#utility.yul\":8808:8826   */\n      0x44\n      dup3\n      add\n        /* \"#utility.yul\":8801:8863   */\n      mstore\n        /* \"#utility.yul\":8899:8926   */\n      0x6f6e617465206973206e6f206c6f6e6765722061637469766500000000000000\n        /* \"#utility.yul\":8879:8897   */\n      0x64\n      dup3\n      add\n        /* \"#utility.yul\":8872:8927   */\n      mstore\n        /* \"#utility.yul\":8944:8963   */\n      0x84\n      add\n        /* \"contracts/DonateCrypto.sol\":1041:1139  require(campaigns[id].active == true, \"The campaign you are trying to donate is no longer active\") */\n      tag_79\n        /* \"#utility.yul\":8548:8969   */\n      jump\n        /* \"contracts/DonateCrypto.sol\":1041:1139  require(campaigns[id].active == true, \"The campaign you are trying to donate is no longer active\") */\n    tag_111:\n        /* \"contracts/DonateCrypto.sol\":1152:1165  campaigns[id] */\n      0x00\n      dup2\n      dup2\n      mstore\n        /* \"contracts/DonateCrypto.sol\":1152:1161  campaigns */\n      0x02\n        /* \"contracts/DonateCrypto.sol\":1152:1165  campaigns[id] */\n      0x20\n      mstore\n      0x40\n      dup2\n      keccak256\n        /* \"contracts/DonateCrypto.sol\":1152:1173  campaigns[id].balance */\n      0x05\n      add\n        /* \"contracts/DonateCrypto.sol\":1152:1186  campaigns[id].balance += msg.value */\n      dup1\n      sload\n        /* \"contracts/DonateCrypto.sol\":1177:1186  msg.value */\n      callvalue\n      swap3\n        /* \"contracts/DonateCrypto.sol\":1152:1165  campaigns[id] */\n      swap1\n        /* \"contracts/DonateCrypto.sol\":1152:1186  campaigns[id].balance += msg.value */\n      tag_114\n      swap1\n        /* \"contracts/DonateCrypto.sol\":1177:1186  msg.value */\n      dup5\n      swap1\n        /* \"contracts/DonateCrypto.sol\":1152:1186  campaigns[id].balance += msg.value */\n      tag_115\n      jump\t// in\n    tag_114:\n      swap1\n      swap2\n      sstore\n      pop\n      pop\n      pop\n        /* \"contracts/DonateCrypto.sol\":900:1194  function donate(uint256 id) public payable {... */\n      jump\t// out\n        /* \"#utility.yul\":14:194   */\n    tag_11:\n        /* \"#utility.yul\":73:79   */\n      0x00\n        /* \"#utility.yul\":126:128   */\n      0x20\n        /* \"#utility.yul\":114:123   */\n      dup3\n        /* \"#utility.yul\":105:112   */\n      dup5\n        /* \"#utility.yul\":101:124   */\n      sub\n        /* \"#utility.yul\":97:129   */\n      slt\n        /* \"#utility.yul\":94:146   */\n      iszero\n      tag_125\n      jumpi\n        /* \"#utility.yul\":142:143   */\n      0x00\n        /* \"#utility.yul\":139:140   */\n      dup1\n        /* \"#utility.yul\":132:144   */\n      revert\n        /* \"#utility.yul\":94:146   */\n    tag_125:\n      pop\n        /* \"#utility.yul\":165:188   */\n      calldataload\n      swap2\n        /* \"#utility.yul\":14:194   */\n      swap1\n      pop\n      jump\t// out\n        /* \"#utility.yul\":199:488   */\n    tag_116:\n        /* \"#utility.yul\":241:244   */\n      0x00\n        /* \"#utility.yul\":279:284   */\n      dup2\n        /* \"#utility.yul\":273:285   */\n      mload\n        /* \"#utility.yul\":306:312   */\n      dup1\n        /* \"#utility.yul\":301:304   */\n      dup5\n        /* \"#utility.yul\":294:313   */\n      mstore\n        /* \"#utility.yul\":362:368   */\n      dup1\n        /* \"#utility.yul\":355:359   */\n      0x20\n        /* \"#utility.yul\":348:353   */\n      dup5\n        /* \"#utility.yul\":344:360   */\n      add\n        /* \"#utility.yul\":337:341   */\n      0x20\n        /* \"#utility.yul\":332:335   */\n      dup7\n        /* \"#utility.yul\":328:342   */\n      add\n        /* \"#utility.yul\":322:369   */\n      mcopy\n        /* \"#utility.yul\":414:415   */\n      0x00\n        /* \"#utility.yul\":407:411   */\n      0x20\n        /* \"#utility.yul\":398:404   */\n      dup3\n        /* \"#utility.yul\":393:396   */\n      dup7\n        /* \"#utility.yul\":389:405   */\n      add\n        /* \"#utility.yul\":385:412   */\n      add\n        /* \"#utility.yul\":378:416   */\n      mstore\n        /* \"#utility.yul\":477:481   */\n      0x20\n        /* \"#utility.yul\":470:472   */\n      0x1f\n        /* \"#utility.yul\":466:473   */\n      not\n        /* \"#utility.yul\":461:463   */\n      0x1f\n        /* \"#utility.yul\":453:459   */\n      dup4\n        /* \"#utility.yul\":449:464   */\n      add\n        /* \"#utility.yul\":445:474   */\n      and\n        /* \"#utility.yul\":440:443   */\n      dup6\n        /* \"#utility.yul\":436:475   */\n      add\n        /* \"#utility.yul\":432:482   */\n      add\n        /* \"#utility.yul\":425:482   */\n      swap2\n      pop\n      pop\n        /* \"#utility.yul\":199:488   */\n      swap3\n      swap2\n      pop\n      pop\n      jump\t// out\n        /* \"#utility.yul\":493:1456   */\n    tag_14:\n      sub(shl(0xa0, 0x01), 0x01)\n        /* \"#utility.yul\":864:896   */\n      dup9\n      and\n        /* \"#utility.yul\":846:897   */\n      dup2\n      mstore\n        /* \"#utility.yul\":933:936   */\n      0xe0\n        /* \"#utility.yul\":928:930   */\n      0x20\n        /* \"#utility.yul\":913:931   */\n      dup3\n      add\n        /* \"#utility.yul\":906:937   */\n      dup2\n      swap1\n      mstore\n      0x00\n      swap1\n        /* \"#utility.yul\":960:1006   */\n      tag_128\n      swap1\n        /* \"#utility.yul\":986:1005   */\n      dup4\n      add\n        /* \"#utility.yul\":978:984   */\n      dup10\n        /* \"#utility.yul\":960:1006   */\n      tag_116\n      jump\t// in\n    tag_128:\n        /* \"#utility.yul\":1054:1063   */\n      dup3\n        /* \"#utility.yul\":1046:1052   */\n      dup2\n        /* \"#utility.yul\":1042:1064   */\n      sub\n        /* \"#utility.yul\":1037:1039   */\n      0x40\n        /* \"#utility.yul\":1026:1035   */\n      dup5\n        /* \"#utility.yul\":1022:1040   */\n      add\n        /* \"#utility.yul\":1015:1065   */\n      mstore\n        /* \"#utility.yul\":1088:1121   */\n      tag_129\n        /* \"#utility.yul\":1114:1120   */\n      dup2\n        /* \"#utility.yul\":1106:1112   */\n      dup10\n        /* \"#utility.yul\":1088:1121   */\n      tag_116\n      jump\t// in\n    tag_129:\n        /* \"#utility.yul\":1074:1121   */\n      swap1\n      pop\n        /* \"#utility.yul\":1169:1178   */\n      dup3\n        /* \"#utility.yul\":1161:1167   */\n      dup2\n        /* \"#utility.yul\":1157:1179   */\n      sub\n        /* \"#utility.yul\":1152:1154   */\n      0x60\n        /* \"#utility.yul\":1141:1150   */\n      dup5\n        /* \"#utility.yul\":1137:1155   */\n      add\n        /* \"#utility.yul\":1130:1180   */\n      mstore\n        /* \"#utility.yul\":1203:1236   */\n      tag_130\n        /* \"#utility.yul\":1229:1235   */\n      dup2\n        /* \"#utility.yul\":1221:1227   */\n      dup9\n        /* \"#utility.yul\":1203:1236   */\n      tag_116\n      jump\t// in\n    tag_130:\n        /* \"#utility.yul\":1189:1236   */\n      swap1\n      pop\n        /* \"#utility.yul\":1285:1294   */\n      dup3\n        /* \"#utility.yul\":1277:1283   */\n      dup2\n        /* \"#utility.yul\":1273:1295   */\n      sub\n        /* \"#utility.yul\":1267:1270   */\n      0x80\n        /* \"#utility.yul\":1256:1265   */\n      dup5\n        /* \"#utility.yul\":1252:1271   */\n      add\n        /* \"#utility.yul\":1245:1296   */\n      mstore\n        /* \"#utility.yul\":1313:1346   */\n      tag_131\n        /* \"#utility.yul\":1339:1345   */\n      dup2\n        /* \"#utility.yul\":1331:1337   */\n      dup8\n        /* \"#utility.yul\":1313:1346   */\n      tag_116\n      jump\t// in\n    tag_131:\n        /* \"#utility.yul\":1377:1380   */\n      0xa0\n        /* \"#utility.yul\":1362:1381   */\n      dup5\n      add\n        /* \"#utility.yul\":1355:1390   */\n      swap6\n      swap1\n      swap6\n      mstore\n      pop\n      pop\n        /* \"#utility.yul\":1434:1448   */\n      swap1\n      iszero\n        /* \"#utility.yul\":1427:1449   */\n      iszero\n        /* \"#utility.yul\":1421:1424   */\n      0xc0\n        /* \"#utility.yul\":1406:1425   */\n      swap1\n      swap2\n      add\n        /* \"#utility.yul\":1399:1450   */\n      mstore\n        /* \"#utility.yul\":1305:1346   */\n      swap6\n        /* \"#utility.yul\":493:1456   */\n      swap5\n      pop\n      pop\n      pop\n      pop\n      pop\n      jump\t// out\n        /* \"#utility.yul\":1643:1991   */\n    tag_117:\n        /* \"#utility.yul\":1695:1703   */\n      0x00\n        /* \"#utility.yul\":1705:1711   */\n      dup1\n        /* \"#utility.yul\":1759:1762   */\n      dup4\n        /* \"#utility.yul\":1752:1756   */\n      0x1f\n        /* \"#utility.yul\":1744:1750   */\n      dup5\n        /* \"#utility.yul\":1740:1757   */\n      add\n        /* \"#utility.yul\":1736:1763   */\n      slt\n        /* \"#utility.yul\":1726:1781   */\n      tag_134\n      jumpi\n        /* \"#utility.yul\":1777:1778   */\n      0x00\n        /* \"#utility.yul\":1774:1775   */\n      dup1\n        /* \"#utility.yul\":1767:1779   */\n      revert\n        /* \"#utility.yul\":1726:1781   */\n    tag_134:\n      pop\n        /* \"#utility.yul\":1800:1820   */\n      dup2\n      calldataload\n        /* \"#utility.yul\":1843:1861   */\n      0xffffffffffffffff\n        /* \"#utility.yul\":1832:1862   */\n      dup2\n      gt\n        /* \"#utility.yul\":1829:1879   */\n      iszero\n      tag_135\n      jumpi\n        /* \"#utility.yul\":1875:1876   */\n      0x00\n        /* \"#utility.yul\":1872:1873   */\n      dup1\n        /* \"#utility.yul\":1865:1877   */\n      revert\n        /* \"#utility.yul\":1829:1879   */\n    tag_135:\n        /* \"#utility.yul\":1912:1916   */\n      0x20\n        /* \"#utility.yul\":1904:1910   */\n      dup4\n        /* \"#utility.yul\":1900:1917   */\n      add\n        /* \"#utility.yul\":1888:1917   */\n      swap2\n      pop\n        /* \"#utility.yul\":1964:1967   */\n      dup4\n        /* \"#utility.yul\":1957:1961   */\n      0x20\n        /* \"#utility.yul\":1948:1954   */\n      dup3\n        /* \"#utility.yul\":1940:1946   */\n      dup6\n        /* \"#utility.yul\":1936:1955   */\n      add\n        /* \"#utility.yul\":1932:1962   */\n      add\n        /* \"#utility.yul\":1929:1968   */\n      gt\n        /* \"#utility.yul\":1926:1985   */\n      iszero\n      tag_136\n      jumpi\n        /* \"#utility.yul\":1981:1982   */\n      0x00\n        /* \"#utility.yul\":1978:1979   */\n      dup1\n        /* \"#utility.yul\":1971:1983   */\n      revert\n        /* \"#utility.yul\":1926:1985   */\n    tag_136:\n        /* \"#utility.yul\":1643:1991   */\n      swap3\n      pop\n      swap3\n      swap1\n      pop\n      jump\t// out\n        /* \"#utility.yul\":1996:3323   */\n    tag_31:\n        /* \"#utility.yul\":2130:2136   */\n      0x00\n        /* \"#utility.yul\":2138:2144   */\n      dup1\n        /* \"#utility.yul\":2146:2152   */\n      0x00\n        /* \"#utility.yul\":2154:2160   */\n      dup1\n        /* \"#utility.yul\":2162:2168   */\n      0x00\n        /* \"#utility.yul\":2170:2176   */\n      dup1\n        /* \"#utility.yul\":2178:2184   */\n      0x00\n        /* \"#utility.yul\":2186:2192   */\n      dup1\n        /* \"#utility.yul\":2239:2242   */\n      0x80\n        /* \"#utility.yul\":2227:2236   */\n      dup10\n        /* \"#utility.yul\":2218:2225   */\n      dup12\n        /* \"#utility.yul\":2214:2237   */\n      sub\n        /* \"#utility.yul\":2210:2243   */\n      slt\n        /* \"#utility.yul\":2207:2260   */\n      iszero\n      tag_138\n      jumpi\n        /* \"#utility.yul\":2256:2257   */\n      0x00\n        /* \"#utility.yul\":2253:2254   */\n      dup1\n        /* \"#utility.yul\":2246:2258   */\n      revert\n        /* \"#utility.yul\":2207:2260   */\n    tag_138:\n        /* \"#utility.yul\":2296:2305   */\n      dup9\n        /* \"#utility.yul\":2283:2306   */\n      calldataload\n        /* \"#utility.yul\":2329:2347   */\n      0xffffffffffffffff\n        /* \"#utility.yul\":2321:2327   */\n      dup2\n        /* \"#utility.yul\":2318:2348   */\n      gt\n        /* \"#utility.yul\":2315:2365   */\n      iszero\n      tag_139\n      jumpi\n        /* \"#utility.yul\":2361:2362   */\n      0x00\n        /* \"#utility.yul\":2358:2359   */\n      dup1\n        /* \"#utility.yul\":2351:2363   */\n      revert\n        /* \"#utility.yul\":2315:2365   */\n    tag_139:\n        /* \"#utility.yul\":2400:2459   */\n      tag_140\n        /* \"#utility.yul\":2451:2458   */\n      dup12\n        /* \"#utility.yul\":2442:2448   */\n      dup3\n        /* \"#utility.yul\":2431:2440   */\n      dup13\n        /* \"#utility.yul\":2427:2449   */\n      add\n        /* \"#utility.yul\":2400:2459   */\n      tag_117\n      jump\t// in\n    tag_140:\n        /* \"#utility.yul\":2478:2486   */\n      swap1\n      swap10\n      pop\n        /* \"#utility.yul\":2374:2459   */\n      swap8\n      pop\n      pop\n        /* \"#utility.yul\":2566:2568   */\n      0x20\n        /* \"#utility.yul\":2551:2569   */\n      dup10\n      add\n        /* \"#utility.yul\":2538:2570   */\n      calldataload\n        /* \"#utility.yul\":2595:2613   */\n      0xffffffffffffffff\n        /* \"#utility.yul\":2582:2614   */\n      dup2\n      gt\n        /* \"#utility.yul\":2579:2631   */\n      iszero\n      tag_141\n      jumpi\n        /* \"#utility.yul\":2627:2628   */\n      0x00\n        /* \"#utility.yul\":2624:2625   */\n      dup1\n        /* \"#utility.yul\":2617:2629   */\n      revert\n        /* \"#utility.yul\":2579:2631   */\n    tag_141:\n        /* \"#utility.yul\":2666:2727   */\n      tag_142\n        /* \"#utility.yul\":2719:2726   */\n      dup12\n        /* \"#utility.yul\":2708:2716   */\n      dup3\n        /* \"#utility.yul\":2697:2706   */\n      dup13\n        /* \"#utility.yul\":2693:2717   */\n      add\n        /* \"#utility.yul\":2666:2727   */\n      tag_117\n      jump\t// in\n    tag_142:\n        /* \"#utility.yul\":2746:2754   */\n      swap1\n      swap8\n      pop\n        /* \"#utility.yul\":2640:2727   */\n      swap6\n      pop\n      pop\n        /* \"#utility.yul\":2834:2836   */\n      0x40\n        /* \"#utility.yul\":2819:2837   */\n      dup10\n      add\n        /* \"#utility.yul\":2806:2838   */\n      calldataload\n        /* \"#utility.yul\":2863:2881   */\n      0xffffffffffffffff\n        /* \"#utility.yul\":2850:2882   */\n      dup2\n      gt\n        /* \"#utility.yul\":2847:2899   */\n      iszero\n      tag_143\n      jumpi\n        /* \"#utility.yul\":2895:2896   */\n      0x00\n        /* \"#utility.yul\":2892:2893   */\n      dup1\n        /* \"#utility.yul\":2885:2897   */\n      revert\n        /* \"#utility.yul\":2847:2899   */\n    tag_143:\n        /* \"#utility.yul\":2934:2995   */\n      tag_144\n        /* \"#utility.yul\":2987:2994   */\n      dup12\n        /* \"#utility.yul\":2976:2984   */\n      dup3\n        /* \"#utility.yul\":2965:2974   */\n      dup13\n        /* \"#utility.yul\":2961:2985   */\n      add\n        /* \"#utility.yul\":2934:2995   */\n      tag_117\n      jump\t// in\n    tag_144:\n        /* \"#utility.yul\":3014:3022   */\n      swap1\n      swap6\n      pop\n        /* \"#utility.yul\":2908:2995   */\n      swap4\n      pop\n      pop\n        /* \"#utility.yul\":3102:3104   */\n      0x60\n        /* \"#utility.yul\":3087:3105   */\n      dup10\n      add\n        /* \"#utility.yul\":3074:3106   */\n      calldataload\n        /* \"#utility.yul\":3131:3149   */\n      0xffffffffffffffff\n        /* \"#utility.yul\":3118:3150   */\n      dup2\n      gt\n        /* \"#utility.yul\":3115:3167   */\n      iszero\n      tag_145\n      jumpi\n        /* \"#utility.yul\":3163:3164   */\n      0x00\n        /* \"#utility.yul\":3160:3161   */\n      dup1\n        /* \"#utility.yul\":3153:3165   */\n      revert\n        /* \"#utility.yul\":3115:3167   */\n    tag_145:\n        /* \"#utility.yul\":3202:3263   */\n      tag_146\n        /* \"#utility.yul\":3255:3262   */\n      dup12\n        /* \"#utility.yul\":3244:3252   */\n      dup3\n        /* \"#utility.yul\":3233:3242   */\n      dup13\n        /* \"#utility.yul\":3229:3253   */\n      add\n        /* \"#utility.yul\":3202:3263   */\n      tag_117\n      jump\t// in\n    tag_146:\n        /* \"#utility.yul\":1996:3323   */\n      swap10\n      swap13\n      swap9\n      swap12\n      pop\n      swap7\n      swap10\n      pop\n      swap5\n      swap8\n      swap4\n      swap7\n      swap3\n      swap6\n        /* \"#utility.yul\":3282:3290   */\n      swap5\n      pop\n      pop\n      pop\n        /* \"#utility.yul\":1996:3323   */\n      jump\t// out\n        /* \"#utility.yul\":3328:3708   */\n    tag_37:\n        /* \"#utility.yul\":3407:3408   */\n      0x01\n        /* \"#utility.yul\":3403:3415   */\n      dup2\n      dup2\n      shr\n      swap1\n        /* \"#utility.yul\":3450:3462   */\n      dup3\n      and\n      dup1\n        /* \"#utility.yul\":3471:3532   */\n      tag_148\n      jumpi\n        /* \"#utility.yul\":3525:3529   */\n      0x7f\n        /* \"#utility.yul\":3517:3523   */\n      dup3\n        /* \"#utility.yul\":3513:3530   */\n      and\n        /* \"#utility.yul\":3503:3530   */\n      swap2\n      pop\n        /* \"#utility.yul\":3471:3532   */\n    tag_148:\n        /* \"#utility.yul\":3578:3580   */\n      0x20\n        /* \"#utility.yul\":3570:3576   */\n      dup3\n        /* \"#utility.yul\":3567:3581   */\n      lt\n        /* \"#utility.yul\":3547:3565   */\n      dup2\n        /* \"#utility.yul\":3544:3582   */\n      sub\n        /* \"#utility.yul\":3541:3702   */\n      tag_149\n      jumpi\n        /* \"#utility.yul\":3624:3634   */\n      0x4e487b71\n        /* \"#utility.yul\":3619:3622   */\n      0xe0\n        /* \"#utility.yul\":3615:3635   */\n      shl\n        /* \"#utility.yul\":3612:3613   */\n      0x00\n        /* \"#utility.yul\":3605:3636   */\n      mstore\n        /* \"#utility.yul\":3659:3663   */\n      0x22\n        /* \"#utility.yul\":3656:3657   */\n      0x04\n        /* \"#utility.yul\":3649:3664   */\n      mstore\n        /* \"#utility.yul\":3687:3691   */\n      0x24\n        /* \"#utility.yul\":3684:3685   */\n      0x00\n        /* \"#utility.yul\":3677:3692   */\n      revert\n        /* \"#utility.yul\":3541:3702   */\n    tag_149:\n      pop\n        /* \"#utility.yul\":3328:3708   */\n      swap2\n      swap1\n      pop\n      jump\t// out\n        /* \"#utility.yul\":4911:5038   */\n    tag_118:\n        /* \"#utility.yul\":4972:4982   */\n      0x4e487b71\n        /* \"#utility.yul\":4967:4970   */\n      0xe0\n        /* \"#utility.yul\":4963:4983   */\n      shl\n        /* \"#utility.yul\":4960:4961   */\n      0x00\n        /* \"#utility.yul\":4953:4984   */\n      mstore\n        /* \"#utility.yul\":5003:5007   */\n      0x11\n        /* \"#utility.yul\":5000:5001   */\n      0x04\n        /* \"#utility.yul\":4993:5008   */\n      mstore\n        /* \"#utility.yul\":5027:5031   */\n      0x24\n        /* \"#utility.yul\":5024:5025   */\n      0x00\n        /* \"#utility.yul\":5017:5032   */\n      revert\n        /* \"#utility.yul\":5043:5171   */\n    tag_88:\n        /* \"#utility.yul\":5110:5119   */\n      dup2\n      dup2\n      sub\n        /* \"#utility.yul\":5131:5142   */\n      dup2\n      dup2\n      gt\n        /* \"#utility.yul\":5128:5165   */\n      iszero\n      tag_156\n      jumpi\n        /* \"#utility.yul\":5145:5163   */\n      tag_156\n      tag_118\n      jump\t// in\n    tag_156:\n        /* \"#utility.yul\":5043:5171   */\n      swap3\n      swap2\n      pop\n      pop\n      jump\t// out\n        /* \"#utility.yul\":5733:5868   */\n    tag_101:\n        /* \"#utility.yul\":5772:5775   */\n      0x00\n        /* \"#utility.yul\":5793:5810   */\n      0x01\n      dup3\n      add\n        /* \"#utility.yul\":5790:5833   */\n      tag_161\n      jumpi\n        /* \"#utility.yul\":5813:5831   */\n      tag_161\n      tag_118\n      jump\t// in\n    tag_161:\n      pop\n        /* \"#utility.yul\":5860:5861   */\n      0x01\n        /* \"#utility.yul\":5849:5862   */\n      add\n      swap1\n        /* \"#utility.yul\":5733:5868   */\n      jump\t// out\n        /* \"#utility.yul\":5873:6000   */\n    tag_119:\n        /* \"#utility.yul\":5934:5944   */\n      0x4e487b71\n        /* \"#utility.yul\":5929:5932   */\n      0xe0\n        /* \"#utility.yul\":5925:5945   */\n      shl\n        /* \"#utility.yul\":5922:5923   */\n      0x00\n        /* \"#utility.yul\":5915:5946   */\n      mstore\n        /* \"#utility.yul\":5965:5969   */\n      0x41\n        /* \"#utility.yul\":5962:5963   */\n      0x04\n        /* \"#utility.yul\":5955:5970   */\n      mstore\n        /* \"#utility.yul\":5989:5993   */\n      0x24\n        /* \"#utility.yul\":5986:5987   */\n      0x00\n        /* \"#utility.yul\":5979:5994   */\n      revert\n        /* \"#utility.yul\":6131:6649   */\n    tag_121:\n        /* \"#utility.yul\":6233:6235   */\n      0x1f\n        /* \"#utility.yul\":6228:6231   */\n      dup3\n        /* \"#utility.yul\":6225:6236   */\n      gt\n        /* \"#utility.yul\":6222:6643   */\n      iszero\n      tag_165\n      jumpi\n        /* \"#utility.yul\":6269:6274   */\n      dup1\n        /* \"#utility.yul\":6266:6267   */\n      0x00\n        /* \"#utility.yul\":6259:6275   */\n      mstore\n        /* \"#utility.yul\":6313:6317   */\n      0x20\n        /* \"#utility.yul\":6310:6311   */\n      0x00\n        /* \"#utility.yul\":6300:6318   */\n      keccak256\n        /* \"#utility.yul\":6383:6385   */\n      0x1f\n        /* \"#utility.yul\":6371:6381   */\n      dup5\n        /* \"#utility.yul\":6367:6386   */\n      add\n        /* \"#utility.yul\":6364:6365   */\n      0x05\n        /* \"#utility.yul\":6360:6387   */\n      shr\n        /* \"#utility.yul\":6354:6358   */\n      dup2\n        /* \"#utility.yul\":6350:6388   */\n      add\n        /* \"#utility.yul\":6419:6423   */\n      0x20\n        /* \"#utility.yul\":6407:6417   */\n      dup6\n        /* \"#utility.yul\":6404:6424   */\n      lt\n        /* \"#utility.yul\":6401:6448   */\n      iszero\n      tag_166\n      jumpi\n      pop\n        /* \"#utility.yul\":6442:6446   */\n      dup1\n        /* \"#utility.yul\":6401:6448   */\n    tag_166:\n        /* \"#utility.yul\":6497:6499   */\n      0x1f\n        /* \"#utility.yul\":6492:6495   */\n      dup5\n        /* \"#utility.yul\":6488:6500   */\n      add\n        /* \"#utility.yul\":6485:6486   */\n      0x05\n        /* \"#utility.yul\":6481:6501   */\n      shr\n        /* \"#utility.yul\":6475:6479   */\n      dup3\n        /* \"#utility.yul\":6471:6502   */\n      add\n        /* \"#utility.yul\":6461:6502   */\n      swap2\n      pop\n        /* \"#utility.yul\":6552:6633   */\n    tag_167:\n        /* \"#utility.yul\":6570:6572   */\n      dup2\n        /* \"#utility.yul\":6563:6568   */\n      dup2\n        /* \"#utility.yul\":6560:6573   */\n      lt\n        /* \"#utility.yul\":6552:6633   */\n      iszero\n      tag_169\n      jumpi\n        /* \"#utility.yul\":6629:6630   */\n      0x00\n        /* \"#utility.yul\":6615:6631   */\n      dup2\n      sstore\n        /* \"#utility.yul\":6596:6597   */\n      0x01\n        /* \"#utility.yul\":6585:6598   */\n      add\n        /* \"#utility.yul\":6552:6633   */\n      jump(tag_167)\n    tag_169:\n        /* \"#utility.yul\":6556:6559   */\n      pop\n      pop\n        /* \"#utility.yul\":6222:6643   */\n    tag_165:\n        /* \"#utility.yul\":6131:6649   */\n      pop\n      pop\n      pop\n      jump\t// out\n        /* \"#utility.yul\":6825:8124   */\n    tag_103:\n        /* \"#utility.yul\":6951:6954   */\n      dup2\n        /* \"#utility.yul\":6945:6955   */\n      mload\n        /* \"#utility.yul\":6978:6996   */\n      0xffffffffffffffff\n        /* \"#utility.yul\":6970:6976   */\n      dup2\n        /* \"#utility.yul\":6967:6997   */\n      gt\n        /* \"#utility.yul\":6964:7020   */\n      iszero\n      tag_173\n      jumpi\n        /* \"#utility.yul\":7000:7018   */\n      tag_173\n      tag_119\n      jump\t// in\n    tag_173:\n        /* \"#utility.yul\":7029:7126   */\n      tag_174\n        /* \"#utility.yul\":7119:7125   */\n      dup2\n        /* \"#utility.yul\":7079:7117   */\n      tag_175\n        /* \"#utility.yul\":7111:7115   */\n      dup5\n        /* \"#utility.yul\":7105:7116   */\n      sload\n        /* \"#utility.yul\":7079:7117   */\n      tag_37\n      jump\t// in\n    tag_175:\n        /* \"#utility.yul\":7073:7077   */\n      dup5\n        /* \"#utility.yul\":7029:7126   */\n      tag_121\n      jump\t// in\n    tag_174:\n        /* \"#utility.yul\":7175:7179   */\n      0x20\n        /* \"#utility.yul\":7206:7208   */\n      0x1f\n        /* \"#utility.yul\":7195:7209   */\n      dup3\n      gt\n        /* \"#utility.yul\":7223:7224   */\n      0x01\n        /* \"#utility.yul\":7218:7867   */\n      dup2\n      eq\n      tag_177\n      jumpi\n        /* \"#utility.yul\":7911:7912   */\n      0x00\n        /* \"#utility.yul\":7928:7934   */\n      dup4\n        /* \"#utility.yul\":7925:8014   */\n      iszero\n      tag_178\n      jumpi\n      pop\n        /* \"#utility.yul\":7980:7999   */\n      dup5\n      dup3\n      add\n        /* \"#utility.yul\":7974:8000   */\n      mload\n        /* \"#utility.yul\":7925:8014   */\n    tag_178:\n      not(0x00)\n        /* \"#utility.yul\":6782:6783   */\n      0x03\n        /* \"#utility.yul\":6778:6789   */\n      dup6\n      swap1\n      shl\n        /* \"#utility.yul\":6774:6798   */\n      shr\n        /* \"#utility.yul\":6770:6799   */\n      not\n        /* \"#utility.yul\":6760:6800   */\n      and\n        /* \"#utility.yul\":6806:6807   */\n      0x01\n        /* \"#utility.yul\":6802:6813   */\n      dup5\n      swap1\n      shl\n        /* \"#utility.yul\":6757:6814   */\n      or\n        /* \"#utility.yul\":8027:8108   */\n      dup5\n      sstore\n        /* \"#utility.yul\":7188:8118   */\n      jump(tag_169)\n        /* \"#utility.yul\":7218:7867   */\n    tag_177:\n        /* \"#utility.yul\":6078:6079   */\n      0x00\n        /* \"#utility.yul\":6071:6085   */\n      dup5\n      dup2\n      mstore\n        /* \"#utility.yul\":6115:6119   */\n      0x20\n        /* \"#utility.yul\":6102:6120   */\n      dup2\n      keccak256\n      not(0x1f)\n        /* \"#utility.yul\":7254:7274   */\n      dup6\n      and\n      swap2\n        /* \"#utility.yul\":7372:7594   */\n    tag_181:\n        /* \"#utility.yul\":7386:7393   */\n      dup3\n        /* \"#utility.yul\":7383:7384   */\n      dup2\n        /* \"#utility.yul\":7380:7394   */\n      lt\n        /* \"#utility.yul\":7372:7594   */\n      iszero\n      tag_183\n      jumpi\n        /* \"#utility.yul\":7468:7487   */\n      dup8\n      dup6\n      add\n        /* \"#utility.yul\":7462:7488   */\n      mload\n        /* \"#utility.yul\":7447:7489   */\n      dup3\n      sstore\n        /* \"#utility.yul\":7575:7579   */\n      0x20\n        /* \"#utility.yul\":7560:7580   */\n      swap5\n      dup6\n      add\n      swap5\n        /* \"#utility.yul\":7528:7529   */\n      0x01\n        /* \"#utility.yul\":7516:7530   */\n      swap1\n      swap3\n      add\n      swap2\n        /* \"#utility.yul\":7402:7414   */\n      add\n        /* \"#utility.yul\":7372:7594   */\n      jump(tag_181)\n    tag_183:\n        /* \"#utility.yul\":7376:7379   */\n      pop\n        /* \"#utility.yul\":7622:7628   */\n      dup5\n        /* \"#utility.yul\":7613:7620   */\n      dup3\n        /* \"#utility.yul\":7610:7629   */\n      lt\n        /* \"#utility.yul\":7607:7808   */\n      iszero\n      tag_184\n      jumpi\n        /* \"#utility.yul\":7683:7702   */\n      dup7\n      dup5\n      add\n        /* \"#utility.yul\":7677:7703   */\n      mload\n      not(0x00)\n        /* \"#utility.yul\":7766:7767   */\n      0x03\n        /* \"#utility.yul\":7762:7776   */\n      dup8\n      swap1\n      shl\n        /* \"#utility.yul\":7778:7781   */\n      0xf8\n        /* \"#utility.yul\":7758:7782   */\n      and\n        /* \"#utility.yul\":7754:7791   */\n      shr\n        /* \"#utility.yul\":7750:7792   */\n      not\n        /* \"#utility.yul\":7735:7793   */\n      and\n        /* \"#utility.yul\":7720:7794   */\n      dup2\n      sstore\n        /* \"#utility.yul\":7607:7808   */\n    tag_184:\n      pop\n      pop\n      pop\n      pop\n        /* \"#utility.yul\":7854:7855   */\n      0x01\n        /* \"#utility.yul\":7838:7852   */\n      swap1\n      dup2\n      shl\n        /* \"#utility.yul\":7834:7856   */\n      add\n        /* \"#utility.yul\":7821:7857   */\n      swap1\n      sstore\n      pop\n        /* \"#utility.yul\":6825:8124   */\n      jump\t// out\n        /* \"#utility.yul\":8974:9099   */\n    tag_115:\n        /* \"#utility.yul\":9039:9048   */\n      dup1\n      dup3\n      add\n        /* \"#utility.yul\":9060:9070   */\n      dup1\n      dup3\n      gt\n        /* \"#utility.yul\":9057:9093   */\n      iszero\n      tag_156\n      jumpi\n        /* \"#utility.yul\":9073:9091   */\n      tag_156\n      tag_118\n      jump\t// in\n\n    auxdata: 0xa2646970667358221220387788e726bcd75e90651e58e85c57470ceefd5f2591fda973c7cc9a7558a02464736f6c634300081a0033\n}\n",
				"bytecode": {
					"linkReferences": {},
					"object": "608060405260645f555f6001553480156016575f80fd5b50610ee0806100245f395ff3fe608060405260043610610054575f3560e01c8063141961bc146100585780632e1a7d4d1461009357806361b8ce8c146100b4578063ddca3f43146100d7578063ec671486146100eb578063f14faf6f1461010a575b5f80fd5b348015610063575f80fd5b50610077610072366004610b2e565b61011d565b60405161008a9796959493929190610b73565b60405180910390f35b34801561009e575f80fd5b506100b26100ad366004610b2e565b61037d565b005b3480156100bf575f80fd5b506100c960015481565b60405190815260200161008a565b3480156100e2575f80fd5b506100c95f5481565b3480156100f6575f80fd5b506100b2610105366004610c31565b610810565b6100b2610118366004610b2e565b610a11565b60026020525f9081526040902080546001820180546001600160a01b03909216929161014890610cff565b80601f016020809104026020016040519081016040528092919081815260200182805461017490610cff565b80156101bf5780601f10610196576101008083540402835291602001916101bf565b820191905f5260205f20905b8154815290600101906020018083116101a257829003601f168201915b5050505050908060020180546101d490610cff565b80601f016020809104026020016040519081016040528092919081815260200182805461020090610cff565b801561024b5780601f106102225761010080835404028352916020019161024b565b820191905f5260205f20905b81548152906001019060200180831161022e57829003601f168201915b50505050509080600301805461026090610cff565b80601f016020809104026020016040519081016040528092919081815260200182805461028c90610cff565b80156102d75780601f106102ae576101008083540402835291602001916102d7565b820191905f5260205f20905b8154815290600101906020018083116102ba57829003601f168201915b5050505050908060040180546102ec90610cff565b80601f016020809104026020016040519081016040528092919081815260200182805461031890610cff565b80156103635780601f1061033a57610100808354040283529160200191610363565b820191905f5260205f20905b81548152906001019060200180831161034657829003601f168201915b50505050600583015460069093015491929160ff16905087565b5f818152600260209081526040808320815160e0810190925280546001600160a01b0316825260018101805492939192918401916103ba90610cff565b80601f01602080910402602001604051908101604052809291908181526020018280546103e690610cff565b80156104315780601f1061040857610100808354040283529160200191610431565b820191905f5260205f20905b81548152906001019060200180831161041457829003601f168201915b5050505050815260200160028201805461044a90610cff565b80601f016020809104026020016040519081016040528092919081815260200182805461047690610cff565b80156104c15780601f10610498576101008083540402835291602001916104c1565b820191905f5260205f20905b8154815290600101906020018083116104a457829003601f168201915b505050505081526020016003820180546104da90610cff565b80601f016020809104026020016040519081016040528092919081815260200182805461050690610cff565b80156105515780601f1061052857610100808354040283529160200191610551565b820191905f5260205f20905b81548152906001019060200180831161053457829003601f168201915b5050505050815260200160048201805461056a90610cff565b80601f016020809104026020016040519081016040528092919081815260200182805461059690610cff565b80156105e15780601f106105b8576101008083540402835291602001916105e1565b820191905f5260205f20905b8154815290600101906020018083116105c457829003601f168201915b50505091835250506005820154602082015260069091015460ff16151560409091015280519091506001600160a01b031633146106655760405162461bcd60e51b815260206004820152601e60248201527f596f7520617265206e6f74207468652063616d706169676e206f776e6572000060448201526064015b60405180910390fd5b60c081015115156001146106e15760405162461bcd60e51b815260206004820152603b60248201527f5468652063616d706169676e20796f752061726520747279696e6720746f207760448201527f69746864726177206973206e6f206c6f6e676572206163746976650000000000606482015260840161065c565b5f548160a00151116107485760405162461bcd60e51b815260206004820152602a60248201527f546869732063616d706169676e20646f6573206e6f74206861766520656e6f7560448201526967682062616c616e636560b01b606482015260840161065c565b5f80548260a0015161075a9190610d4b565b90505f825f01516001600160a01b0316826040515f6040518083038185875af1925050503d805f81146107a8576040519150601f19603f3d011682016040523d82523d5f602084013e6107ad565b606091505b50509050806107f35760405162461bcd60e51b81526020600482015260126024820152714661696c656420746f20776974686472617760701b604482015260640161065c565b5050505f908152600260205260409020600601805460ff19169055565b6108586040518060e001604052805f6001600160a01b03168152602001606081526020016060815260200160608152602001606081526020015f81526020015f151581525090565b88888080601f0160208091040260200160405190810160405280939291908181526020018383808284375f9201919091525050505060208083019190915260408051601f89018390048302810183019091528781529088908890819084018382808284375f9201919091525050505060408083019190915280516020601f87018190048102820181019092528581529086908690819084018382808284375f920191909152505050506060820152604080516020601f85018190048102820181019092528381529084908490819084018382808284375f92018290525060808601949094525050600160c0840181905233845280549290915061095a83610d64565b9091555050600180545f908152600260209081526040909120835181546001600160a01b0319166001600160a01b039091161781559083015183928201906109a29082610ddc565b50604082015160028201906109b79082610ddc565b50606082015160038201906109cc9082610ddc565b50608082015160048201906109e19082610ddc565b5060a0820151600582015560c0909101516006909101805460ff1916911515919091179055505050505050505050565b5f3411610a7b5760405162461bcd60e51b815260206004820152603260248201527f596f75206d7573742073656e64206120646f6e6174696f6e207769746820766160448201527106c75652067726561746572207468616e20360741b606482015260840161065c565b5f8181526002602052604090206006015460ff161515600114610b065760405162461bcd60e51b815260206004820152603960248201527f5468652063616d706169676e20796f752061726520747279696e6720746f206460448201527f6f6e617465206973206e6f206c6f6e6765722061637469766500000000000000606482015260840161065c565b5f8181526002602052604081206005018054349290610b26908490610e97565b909155505050565b5f60208284031215610b3e575f80fd5b5035919050565b5f81518084528060208401602086015e5f602082860101526020601f19601f83011685010191505092915050565b6001600160a01b038816815260e0602082018190525f90610b9690830189610b45565b8281036040840152610ba88189610b45565b90508281036060840152610bbc8188610b45565b90508281036080840152610bd08187610b45565b60a0840195909552505090151560c09091015295945050505050565b5f8083601f840112610bfc575f80fd5b50813567ffffffffffffffff811115610c13575f80fd5b602083019150836020828501011115610c2a575f80fd5b9250929050565b5f805f805f805f806080898b031215610c48575f80fd5b883567ffffffffffffffff811115610c5e575f80fd5b610c6a8b828c01610bec565b909950975050602089013567ffffffffffffffff811115610c89575f80fd5b610c958b828c01610bec565b909750955050604089013567ffffffffffffffff811115610cb4575f80fd5b610cc08b828c01610bec565b909550935050606089013567ffffffffffffffff811115610cdf575f80fd5b610ceb8b828c01610bec565b999c989b5096995094979396929594505050565b600181811c90821680610d1357607f821691505b602082108103610d3157634e487b7160e01b5f52602260045260245ffd5b50919050565b634e487b7160e01b5f52601160045260245ffd5b81810381811115610d5e57610d5e610d37565b92915050565b5f60018201610d7557610d75610d37565b5060010190565b634e487b7160e01b5f52604160045260245ffd5b601f821115610dd757805f5260205f20601f840160051c81016020851015610db55750805b601f840160051c820191505b81811015610dd4575f8155600101610dc1565b50505b505050565b815167ffffffffffffffff811115610df657610df6610d7c565b610e0a81610e048454610cff565b84610d90565b6020601f821160018114610e3c575f8315610e255750848201515b5f19600385901b1c1916600184901b178455610dd4565b5f84815260208120601f198516915b82811015610e6b5787850151825560209485019460019092019101610e4b565b5084821015610e8857868401515f19600387901b60f8161c191681555b50505050600190811b01905550565b80820180821115610d5e57610d5e610d3756fea2646970667358221220387788e726bcd75e90651e58e85c57470ceefd5f2591fda973c7cc9a7558a02464736f6c634300081a0033",
					"opcodes": "PUSH1 0x80 PUSH1 0x40 MSTORE PUSH1 0x64 PUSH0 SSTORE PUSH0 PUSH1 0x1 SSTORE CALLVALUE DUP1 ISZERO PUSH1 0x16 JUMPI PUSH0 DUP1 REVERT JUMPDEST POP PUSH2 0xEE0 DUP1 PUSH2 0x24 PUSH0 CODECOPY PUSH0 RETURN INVALID PUSH1 0x80 PUSH1 0x40 MSTORE PUSH1 0x4 CALLDATASIZE LT PUSH2 0x54 JUMPI PUSH0 CALLDATALOAD PUSH1 0xE0 SHR DUP1 PUSH4 0x141961BC EQ PUSH2 0x58 JUMPI DUP1 PUSH4 0x2E1A7D4D EQ PUSH2 0x93 JUMPI DUP1 PUSH4 0x61B8CE8C EQ PUSH2 0xB4 JUMPI DUP1 PUSH4 0xDDCA3F43 EQ PUSH2 0xD7 JUMPI DUP1 PUSH4 0xEC671486 EQ PUSH2 0xEB JUMPI DUP1 PUSH4 0xF14FAF6F EQ PUSH2 0x10A JUMPI JUMPDEST PUSH0 DUP1 REVERT JUMPDEST CALLVALUE DUP1 ISZERO PUSH2 0x63 JUMPI PUSH0 DUP1 REVERT JUMPDEST POP PUSH2 0x77 PUSH2 0x72 CALLDATASIZE PUSH1 0x4 PUSH2 0xB2E JUMP JUMPDEST PUSH2 0x11D JUMP JUMPDEST PUSH1 0x40 MLOAD PUSH2 0x8A SWAP8 SWAP7 SWAP6 SWAP5 SWAP4 SWAP3 SWAP2 SWAP1 PUSH2 0xB73 JUMP JUMPDEST PUSH1 0x40 MLOAD DUP1 SWAP2 SUB SWAP1 RETURN JUMPDEST CALLVALUE DUP1 ISZERO PUSH2 0x9E JUMPI PUSH0 DUP1 REVERT JUMPDEST POP PUSH2 0xB2 PUSH2 0xAD CALLDATASIZE PUSH1 0x4 PUSH2 0xB2E JUMP JUMPDEST PUSH2 0x37D JUMP JUMPDEST STOP JUMPDEST CALLVALUE DUP1 ISZERO PUSH2 0xBF JUMPI PUSH0 DUP1 REVERT JUMPDEST POP PUSH2 0xC9 PUSH1 0x1 SLOAD DUP2 JUMP JUMPDEST PUSH1 0x40 MLOAD SWAP1 DUP2 MSTORE PUSH1 0x20 ADD PUSH2 0x8A JUMP JUMPDEST CALLVALUE DUP1 ISZERO PUSH2 0xE2 JUMPI PUSH0 DUP1 REVERT JUMPDEST POP PUSH2 0xC9 PUSH0 SLOAD DUP2 JUMP JUMPDEST CALLVALUE DUP1 ISZERO PUSH2 0xF6 JUMPI PUSH0 DUP1 REVERT JUMPDEST POP PUSH2 0xB2 PUSH2 0x105 CALLDATASIZE PUSH1 0x4 PUSH2 0xC31 JUMP JUMPDEST PUSH2 0x810 JUMP JUMPDEST PUSH2 0xB2 PUSH2 0x118 CALLDATASIZE PUSH1 0x4 PUSH2 0xB2E JUMP JUMPDEST PUSH2 0xA11 JUMP JUMPDEST PUSH1 0x2 PUSH1 0x20 MSTORE PUSH0 SWAP1 DUP2 MSTORE PUSH1 0x40 SWAP1 KECCAK256 DUP1 SLOAD PUSH1 0x1 DUP3 ADD DUP1 SLOAD PUSH1 0x1 PUSH1 0x1 PUSH1 0xA0 SHL SUB SWAP1 SWAP3 AND SWAP3 SWAP2 PUSH2 0x148 SWAP1 PUSH2 0xCFF JUMP JUMPDEST DUP1 PUSH1 0x1F ADD PUSH1 0x20 DUP1 SWAP2 DIV MUL PUSH1 0x20 ADD PUSH1 0x40 MLOAD SWAP1 DUP2 ADD PUSH1 0x40 MSTORE DUP1 SWAP3 SWAP2 SWAP1 DUP2 DUP2 MSTORE PUSH1 0x20 ADD DUP3 DUP1 SLOAD PUSH2 0x174 SWAP1 PUSH2 0xCFF JUMP JUMPDEST DUP1 ISZERO PUSH2 0x1BF JUMPI DUP1 PUSH1 0x1F LT PUSH2 0x196 JUMPI PUSH2 0x100 DUP1 DUP4 SLOAD DIV MUL DUP4 MSTORE SWAP2 PUSH1 0x20 ADD SWAP2 PUSH2 0x1BF JUMP JUMPDEST DUP3 ADD SWAP2 SWAP1 PUSH0 MSTORE PUSH1 0x20 PUSH0 KECCAK256 SWAP1 JUMPDEST DUP2 SLOAD DUP2 MSTORE SWAP1 PUSH1 0x1 ADD SWAP1 PUSH1 0x20 ADD DUP1 DUP4 GT PUSH2 0x1A2 JUMPI DUP3 SWAP1 SUB PUSH1 0x1F AND DUP3 ADD SWAP2 JUMPDEST POP POP POP POP POP SWAP1 DUP1 PUSH1 0x2 ADD DUP1 SLOAD PUSH2 0x1D4 SWAP1 PUSH2 0xCFF JUMP JUMPDEST DUP1 PUSH1 0x1F ADD PUSH1 0x20 DUP1 SWAP2 DIV MUL PUSH1 0x20 ADD PUSH1 0x40 MLOAD SWAP1 DUP2 ADD PUSH1 0x40 MSTORE DUP1 SWAP3 SWAP2 SWAP1 DUP2 DUP2 MSTORE PUSH1 0x20 ADD DUP3 DUP1 SLOAD PUSH2 0x200 SWAP1 PUSH2 0xCFF JUMP JUMPDEST DUP1 ISZERO PUSH2 0x24B JUMPI DUP1 PUSH1 0x1F LT PUSH2 0x222 JUMPI PUSH2 0x100 DUP1 DUP4 SLOAD DIV MUL DUP4 MSTORE SWAP2 PUSH1 0x20 ADD SWAP2 PUSH2 0x24B JUMP JUMPDEST DUP3 ADD SWAP2 SWAP1 PUSH0 MSTORE PUSH1 0x20 PUSH0 KECCAK256 SWAP1 JUMPDEST DUP2 SLOAD DUP2 MSTORE SWAP1 PUSH1 0x1 ADD SWAP1 PUSH1 0x20 ADD DUP1 DUP4 GT PUSH2 0x22E JUMPI DUP3 SWAP1 SUB PUSH1 0x1F AND DUP3 ADD SWAP2 JUMPDEST POP POP POP POP POP SWAP1 DUP1 PUSH1 0x3 ADD DUP1 SLOAD PUSH2 0x260 SWAP1 PUSH2 0xCFF JUMP JUMPDEST DUP1 PUSH1 0x1F ADD PUSH1 0x20 DUP1 SWAP2 DIV MUL PUSH1 0x20 ADD PUSH1 0x40 MLOAD SWAP1 DUP2 ADD PUSH1 0x40 MSTORE DUP1 SWAP3 SWAP2 SWAP1 DUP2 DUP2 MSTORE PUSH1 0x20 ADD DUP3 DUP1 SLOAD PUSH2 0x28C SWAP1 PUSH2 0xCFF JUMP JUMPDEST DUP1 ISZERO PUSH2 0x2D7 JUMPI DUP1 PUSH1 0x1F LT PUSH2 0x2AE JUMPI PUSH2 0x100 DUP1 DUP4 SLOAD DIV MUL DUP4 MSTORE SWAP2 PUSH1 0x20 ADD SWAP2 PUSH2 0x2D7 JUMP JUMPDEST DUP3 ADD SWAP2 SWAP1 PUSH0 MSTORE PUSH1 0x20 PUSH0 KECCAK256 SWAP1 JUMPDEST DUP2 SLOAD DUP2 MSTORE SWAP1 PUSH1 0x1 ADD SWAP1 PUSH1 0x20 ADD DUP1 DUP4 GT PUSH2 0x2BA JUMPI DUP3 SWAP1 SUB PUSH1 0x1F AND DUP3 ADD SWAP2 JUMPDEST POP POP POP POP POP SWAP1 DUP1 PUSH1 0x4 ADD DUP1 SLOAD PUSH2 0x2EC SWAP1 PUSH2 0xCFF JUMP JUMPDEST DUP1 PUSH1 0x1F ADD PUSH1 0x20 DUP1 SWAP2 DIV MUL PUSH1 0x20 ADD PUSH1 0x40 MLOAD SWAP1 DUP2 ADD PUSH1 0x40 MSTORE DUP1 SWAP3 SWAP2 SWAP1 DUP2 DUP2 MSTORE PUSH1 0x20 ADD DUP3 DUP1 SLOAD PUSH2 0x318 SWAP1 PUSH2 0xCFF JUMP JUMPDEST DUP1 ISZERO PUSH2 0x363 JUMPI DUP1 PUSH1 0x1F LT PUSH2 0x33A JUMPI PUSH2 0x100 DUP1 DUP4 SLOAD DIV MUL DUP4 MSTORE SWAP2 PUSH1 0x20 ADD SWAP2 PUSH2 0x363 JUMP JUMPDEST DUP3 ADD SWAP2 SWAP1 PUSH0 MSTORE PUSH1 0x20 PUSH0 KECCAK256 SWAP1 JUMPDEST DUP2 SLOAD DUP2 MSTORE SWAP1 PUSH1 0x1 ADD SWAP1 PUSH1 0x20 ADD DUP1 DUP4 GT PUSH2 0x346 JUMPI DUP3 SWAP1 SUB PUSH1 0x1F AND DUP3 ADD SWAP2 JUMPDEST POP POP POP POP PUSH1 0x5 DUP4 ADD SLOAD PUSH1 0x6 SWAP1 SWAP4 ADD SLOAD SWAP2 SWAP3 SWAP2 PUSH1 0xFF AND SWAP1 POP DUP8 JUMP JUMPDEST PUSH0 DUP2 DUP2 MSTORE PUSH1 0x2 PUSH1 0x20 SWAP1 DUP2 MSTORE PUSH1 0x40 DUP1 DUP4 KECCAK256 DUP2 MLOAD PUSH1 0xE0 DUP2 ADD SWAP1 SWAP3 MSTORE DUP1 SLOAD PUSH1 0x1 PUSH1 0x1 PUSH1 0xA0 SHL SUB AND DUP3 MSTORE PUSH1 0x1 DUP2 ADD DUP1 SLOAD SWAP3 SWAP4 SWAP2 SWAP3 SWAP2 DUP5 ADD SWAP2 PUSH2 0x3BA SWAP1 PUSH2 0xCFF JUMP JUMPDEST DUP1 PUSH1 0x1F ADD PUSH1 0x20 DUP1 SWAP2 DIV MUL PUSH1 0x20 ADD PUSH1 0x40 MLOAD SWAP1 DUP2 ADD PUSH1 0x40 MSTORE DUP1 SWAP3 SWAP2 SWAP1 DUP2 DUP2 MSTORE PUSH1 0x20 ADD DUP3 DUP1 SLOAD PUSH2 0x3E6 SWAP1 PUSH2 0xCFF JUMP JUMPDEST DUP1 ISZERO PUSH2 0x431 JUMPI DUP1 PUSH1 0x1F LT PUSH2 0x408 JUMPI PUSH2 0x100 DUP1 DUP4 SLOAD DIV MUL DUP4 MSTORE SWAP2 PUSH1 0x20 ADD SWAP2 PUSH2 0x431 JUMP JUMPDEST DUP3 ADD SWAP2 SWAP1 PUSH0 MSTORE PUSH1 0x20 PUSH0 KECCAK256 SWAP1 JUMPDEST DUP2 SLOAD DUP2 MSTORE SWAP1 PUSH1 0x1 ADD SWAP1 PUSH1 0x20 ADD DUP1 DUP4 GT PUSH2 0x414 JUMPI DUP3 SWAP1 SUB PUSH1 0x1F AND DUP3 ADD SWAP2 JUMPDEST POP POP POP POP POP DUP2 MSTORE PUSH1 0x20 ADD PUSH1 0x2 DUP3 ADD DUP1 SLOAD PUSH2 0x44A SWAP1 PUSH2 0xCFF JUMP JUMPDEST DUP1 PUSH1 0x1F ADD PUSH1 0x20 DUP1 SWAP2 DIV MUL PUSH1 0x20 ADD PUSH1 0x40 MLOAD SWAP1 DUP2 ADD PUSH1 0x40 MSTORE DUP1 SWAP3 SWAP2 SWAP1 DUP2 DUP2 MSTORE PUSH1 0x20 ADD DUP3 DUP1 SLOAD PUSH2 0x476 SWAP1 PUSH2 0xCFF JUMP JUMPDEST DUP1 ISZERO PUSH2 0x4C1 JUMPI DUP1 PUSH1 0x1F LT PUSH2 0x498 JUMPI PUSH2 0x100 DUP1 DUP4 SLOAD DIV MUL DUP4 MSTORE SWAP2 PUSH1 0x20 ADD SWAP2 PUSH2 0x4C1 JUMP JUMPDEST DUP3 ADD SWAP2 SWAP1 PUSH0 MSTORE PUSH1 0x20 PUSH0 KECCAK256 SWAP1 JUMPDEST DUP2 SLOAD DUP2 MSTORE SWAP1 PUSH1 0x1 ADD SWAP1 PUSH1 0x20 ADD DUP1 DUP4 GT PUSH2 0x4A4 JUMPI DUP3 SWAP1 SUB PUSH1 0x1F AND DUP3 ADD SWAP2 JUMPDEST POP POP POP POP POP DUP2 MSTORE PUSH1 0x20 ADD PUSH1 0x3 DUP3 ADD DUP1 SLOAD PUSH2 0x4DA SWAP1 PUSH2 0xCFF JUMP JUMPDEST DUP1 PUSH1 0x1F ADD PUSH1 0x20 DUP1 SWAP2 DIV MUL PUSH1 0x20 ADD PUSH1 0x40 MLOAD SWAP1 DUP2 ADD PUSH1 0x40 MSTORE DUP1 SWAP3 SWAP2 SWAP1 DUP2 DUP2 MSTORE PUSH1 0x20 ADD DUP3 DUP1 SLOAD PUSH2 0x506 SWAP1 PUSH2 0xCFF JUMP JUMPDEST DUP1 ISZERO PUSH2 0x551 JUMPI DUP1 PUSH1 0x1F LT PUSH2 0x528 JUMPI PUSH2 0x100 DUP1 DUP4 SLOAD DIV MUL DUP4 MSTORE SWAP2 PUSH1 0x20 ADD SWAP2 PUSH2 0x551 JUMP JUMPDEST DUP3 ADD SWAP2 SWAP1 PUSH0 MSTORE PUSH1 0x20 PUSH0 KECCAK256 SWAP1 JUMPDEST DUP2 SLOAD DUP2 MSTORE SWAP1 PUSH1 0x1 ADD SWAP1 PUSH1 0x20 ADD DUP1 DUP4 GT PUSH2 0x534 JUMPI DUP3 SWAP1 SUB PUSH1 0x1F AND DUP3 ADD SWAP2 JUMPDEST POP POP POP POP POP DUP2 MSTORE PUSH1 0x20 ADD PUSH1 0x4 DUP3 ADD DUP1 SLOAD PUSH2 0x56A SWAP1 PUSH2 0xCFF JUMP JUMPDEST DUP1 PUSH1 0x1F ADD PUSH1 0x20 DUP1 SWAP2 DIV MUL PUSH1 0x20 ADD PUSH1 0x40 MLOAD SWAP1 DUP2 ADD PUSH1 0x40 MSTORE DUP1 SWAP3 SWAP2 SWAP1 DUP2 DUP2 MSTORE PUSH1 0x20 ADD DUP3 DUP1 SLOAD PUSH2 0x596 SWAP1 PUSH2 0xCFF JUMP JUMPDEST DUP1 ISZERO PUSH2 0x5E1 JUMPI DUP1 PUSH1 0x1F LT PUSH2 0x5B8 JUMPI PUSH2 0x100 DUP1 DUP4 SLOAD DIV MUL DUP4 MSTORE SWAP2 PUSH1 0x20 ADD SWAP2 PUSH2 0x5E1 JUMP JUMPDEST DUP3 ADD SWAP2 SWAP1 PUSH0 MSTORE PUSH1 0x20 PUSH0 KECCAK256 SWAP1 JUMPDEST DUP2 SLOAD DUP2 MSTORE SWAP1 PUSH1 0x1 ADD SWAP1 PUSH1 0x20 ADD DUP1 DUP4 GT PUSH2 0x5C4 JUMPI DUP3 SWAP1 SUB PUSH1 0x1F AND DUP3 ADD SWAP2 JUMPDEST POP POP POP SWAP2 DUP4 MSTORE POP POP PUSH1 0x5 DUP3 ADD SLOAD PUSH1 0x20 DUP3 ADD MSTORE PUSH1 0x6 SWAP1 SWAP2 ADD SLOAD PUSH1 0xFF AND ISZERO ISZERO PUSH1 0x40 SWAP1 SWAP2 ADD MSTORE DUP1 MLOAD SWAP1 SWAP2 POP PUSH1 0x1 PUSH1 0x1 PUSH1 0xA0 SHL SUB AND CALLER EQ PUSH2 0x665 JUMPI PUSH1 0x40 MLOAD PUSH3 0x461BCD PUSH1 0xE5 SHL DUP2 MSTORE PUSH1 0x20 PUSH1 0x4 DUP3 ADD MSTORE PUSH1 0x1E PUSH1 0x24 DUP3 ADD MSTORE PUSH32 0x596F7520617265206E6F74207468652063616D706169676E206F776E65720000 PUSH1 0x44 DUP3 ADD MSTORE PUSH1 0x64 ADD JUMPDEST PUSH1 0x40 MLOAD DUP1 SWAP2 SUB SWAP1 REVERT JUMPDEST PUSH1 0xC0 DUP2 ADD MLOAD ISZERO ISZERO PUSH1 0x1 EQ PUSH2 0x6E1 JUMPI PUSH1 0x40 MLOAD PUSH3 0x461BCD PUSH1 0xE5 SHL DUP2 MSTORE PUSH1 0x20 PUSH1 0x4 DUP3 ADD MSTORE PUSH1 0x3B PUSH1 0x24 DUP3 ADD MSTORE PUSH32 0x5468652063616D706169676E20796F752061726520747279696E6720746F2077 PUSH1 0x44 DUP3 ADD MSTORE PUSH32 0x69746864726177206973206E6F206C6F6E676572206163746976650000000000 PUSH1 0x64 DUP3 ADD MSTORE PUSH1 0x84 ADD PUSH2 0x65C JUMP JUMPDEST PUSH0 SLOAD DUP2 PUSH1 0xA0 ADD MLOAD GT PUSH2 0x748 JUMPI PUSH1 0x40 MLOAD PUSH3 0x461BCD PUSH1 0xE5 SHL DUP2 MSTORE PUSH1 0x20 PUSH1 0x4 DUP3 ADD MSTORE PUSH1 0x2A PUSH1 0x24 DUP3 ADD MSTORE PUSH32 0x546869732063616D706169676E20646F6573206E6F74206861766520656E6F75 PUSH1 0x44 DUP3 ADD MSTORE PUSH10 0x67682062616C616E6365 PUSH1 0xB0 SHL PUSH1 0x64 DUP3 ADD MSTORE PUSH1 0x84 ADD PUSH2 0x65C JUMP JUMPDEST PUSH0 DUP1 SLOAD DUP3 PUSH1 0xA0 ADD MLOAD PUSH2 0x75A SWAP2 SWAP1 PUSH2 0xD4B JUMP JUMPDEST SWAP1 POP PUSH0 DUP3 PUSH0 ADD MLOAD PUSH1 0x1 PUSH1 0x1 PUSH1 0xA0 SHL SUB AND DUP3 PUSH1 0x40 MLOAD PUSH0 PUSH1 0x40 MLOAD DUP1 DUP4 SUB DUP2 DUP6 DUP8 GAS CALL SWAP3 POP POP POP RETURNDATASIZE DUP1 PUSH0 DUP2 EQ PUSH2 0x7A8 JUMPI PUSH1 0x40 MLOAD SWAP2 POP PUSH1 0x1F NOT PUSH1 0x3F RETURNDATASIZE ADD AND DUP3 ADD PUSH1 0x40 MSTORE RETURNDATASIZE DUP3 MSTORE RETURNDATASIZE PUSH0 PUSH1 0x20 DUP5 ADD RETURNDATACOPY PUSH2 0x7AD JUMP JUMPDEST PUSH1 0x60 SWAP2 POP JUMPDEST POP POP SWAP1 POP DUP1 PUSH2 0x7F3 JUMPI PUSH1 0x40 MLOAD PUSH3 0x461BCD PUSH1 0xE5 SHL DUP2 MSTORE PUSH1 0x20 PUSH1 0x4 DUP3 ADD MSTORE PUSH1 0x12 PUSH1 0x24 DUP3 ADD MSTORE PUSH18 0x4661696C656420746F207769746864726177 PUSH1 0x70 SHL PUSH1 0x44 DUP3 ADD MSTORE PUSH1 0x64 ADD PUSH2 0x65C JUMP JUMPDEST POP POP POP PUSH0 SWAP1 DUP2 MSTORE PUSH1 0x2 PUSH1 0x20 MSTORE PUSH1 0x40 SWAP1 KECCAK256 PUSH1 0x6 ADD DUP1 SLOAD PUSH1 0xFF NOT AND SWAP1 SSTORE JUMP JUMPDEST PUSH2 0x858 PUSH1 0x40 MLOAD DUP1 PUSH1 0xE0 ADD PUSH1 0x40 MSTORE DUP1 PUSH0 PUSH1 0x1 PUSH1 0x1 PUSH1 0xA0 SHL SUB AND DUP2 MSTORE PUSH1 0x20 ADD PUSH1 0x60 DUP2 MSTORE PUSH1 0x20 ADD PUSH1 0x60 DUP2 MSTORE PUSH1 0x20 ADD PUSH1 0x60 DUP2 MSTORE PUSH1 0x20 ADD PUSH1 0x60 DUP2 MSTORE PUSH1 0x20 ADD PUSH0 DUP2 MSTORE PUSH1 0x20 ADD PUSH0 ISZERO ISZERO DUP2 MSTORE POP SWAP1 JUMP JUMPDEST DUP9 DUP9 DUP1 DUP1 PUSH1 0x1F ADD PUSH1 0x20 DUP1 SWAP2 DIV MUL PUSH1 0x20 ADD PUSH1 0x40 MLOAD SWAP1 DUP2 ADD PUSH1 0x40 MSTORE DUP1 SWAP4 SWAP3 SWAP2 SWAP1 DUP2 DUP2 MSTORE PUSH1 0x20 ADD DUP4 DUP4 DUP1 DUP3 DUP5 CALLDATACOPY PUSH0 SWAP3 ADD SWAP2 SWAP1 SWAP2 MSTORE POP POP POP POP PUSH1 0x20 DUP1 DUP4 ADD SWAP2 SWAP1 SWAP2 MSTORE PUSH1 0x40 DUP1 MLOAD PUSH1 0x1F DUP10 ADD DUP4 SWAP1 DIV DUP4 MUL DUP2 ADD DUP4 ADD SWAP1 SWAP2 MSTORE DUP8 DUP2 MSTORE SWAP1 DUP9 SWAP1 DUP9 SWAP1 DUP2 SWAP1 DUP5 ADD DUP4 DUP3 DUP1 DUP3 DUP5 CALLDATACOPY PUSH0 SWAP3 ADD SWAP2 SWAP1 SWAP2 MSTORE POP POP POP POP PUSH1 0x40 DUP1 DUP4 ADD SWAP2 SWAP1 SWAP2 MSTORE DUP1 MLOAD PUSH1 0x20 PUSH1 0x1F DUP8 ADD DUP2 SWAP1 DIV DUP2 MUL DUP3 ADD DUP2 ADD SWAP1 SWAP3 MSTORE DUP6 DUP2 MSTORE SWAP1 DUP7 SWAP1 DUP7 SWAP1 DUP2 SWAP1 DUP5 ADD DUP4 DUP3 DUP1 DUP3 DUP5 CALLDATACOPY PUSH0 SWAP3 ADD SWAP2 SWAP1 SWAP2 MSTORE POP POP POP POP PUSH1 0x60 DUP3 ADD MSTORE PUSH1 0x40 DUP1 MLOAD PUSH1 0x20 PUSH1 0x1F DUP6 ADD DUP2 SWAP1 DIV DUP2 MUL DUP3 ADD DUP2 ADD SWAP1 SWAP3 MSTORE DUP4 DUP2 MSTORE SWAP1 DUP5 SWAP1 DUP5 SWAP1 DUP2 SWAP1 DUP5 ADD DUP4 DUP3 DUP1 DUP3 DUP5 CALLDATACOPY PUSH0 SWAP3 ADD DUP3 SWAP1 MSTORE POP PUSH1 0x80 DUP7 ADD SWAP5 SWAP1 SWAP5 MSTORE POP POP PUSH1 0x1 PUSH1 0xC0 DUP5 ADD DUP2 SWAP1 MSTORE CALLER DUP5 MSTORE DUP1 SLOAD SWAP3 SWAP1 SWAP2 POP PUSH2 0x95A DUP4 PUSH2 0xD64 JUMP JUMPDEST SWAP1 SWAP2 SSTORE POP POP PUSH1 0x1 DUP1 SLOAD PUSH0 SWAP1 DUP2 MSTORE PUSH1 0x2 PUSH1 0x20 SWAP1 DUP2 MSTORE PUSH1 0x40 SWAP1 SWAP2 KECCAK256 DUP4 MLOAD DUP2 SLOAD PUSH1 0x1 PUSH1 0x1 PUSH1 0xA0 SHL SUB NOT AND PUSH1 0x1 PUSH1 0x1 PUSH1 0xA0 SHL SUB SWAP1 SWAP2 AND OR DUP2 SSTORE SWAP1 DUP4 ADD MLOAD DUP4 SWAP3 DUP3 ADD SWAP1 PUSH2 0x9A2 SWAP1 DUP3 PUSH2 0xDDC JUMP JUMPDEST POP PUSH1 0x40 DUP3 ADD MLOAD PUSH1 0x2 DUP3 ADD SWAP1 PUSH2 0x9B7 SWAP1 DUP3 PUSH2 0xDDC JUMP JUMPDEST POP PUSH1 0x60 DUP3 ADD MLOAD PUSH1 0x3 DUP3 ADD SWAP1 PUSH2 0x9CC SWAP1 DUP3 PUSH2 0xDDC JUMP JUMPDEST POP PUSH1 0x80 DUP3 ADD MLOAD PUSH1 0x4 DUP3 ADD SWAP1 PUSH2 0x9E1 SWAP1 DUP3 PUSH2 0xDDC JUMP JUMPDEST POP PUSH1 0xA0 DUP3 ADD MLOAD PUSH1 0x5 DUP3 ADD SSTORE PUSH1 0xC0 SWAP1 SWAP2 ADD MLOAD PUSH1 0x6 SWAP1 SWAP2 ADD DUP1 SLOAD PUSH1 0xFF NOT AND SWAP2 ISZERO ISZERO SWAP2 SWAP1 SWAP2 OR SWAP1 SSTORE POP POP POP POP POP POP POP POP POP JUMP JUMPDEST PUSH0 CALLVALUE GT PUSH2 0xA7B JUMPI PUSH1 0x40 MLOAD PUSH3 0x461BCD PUSH1 0xE5 SHL DUP2 MSTORE PUSH1 0x20 PUSH1 0x4 DUP3 ADD MSTORE PUSH1 0x32 PUSH1 0x24 DUP3 ADD MSTORE PUSH32 0x596F75206D7573742073656E64206120646F6E6174696F6E2077697468207661 PUSH1 0x44 DUP3 ADD MSTORE PUSH18 0x6C75652067726561746572207468616E203 PUSH1 0x74 SHL PUSH1 0x64 DUP3 ADD MSTORE PUSH1 0x84 ADD PUSH2 0x65C JUMP JUMPDEST PUSH0 DUP2 DUP2 MSTORE PUSH1 0x2 PUSH1 0x20 MSTORE PUSH1 0x40 SWAP1 KECCAK256 PUSH1 0x6 ADD SLOAD PUSH1 0xFF AND ISZERO ISZERO PUSH1 0x1 EQ PUSH2 0xB06 JUMPI PUSH1 0x40 MLOAD PUSH3 0x461BCD PUSH1 0xE5 SHL DUP2 MSTORE PUSH1 0x20 PUSH1 0x4 DUP3 ADD MSTORE PUSH1 0x39 PUSH1 0x24 DUP3 ADD MSTORE PUSH32 0x5468652063616D706169676E20796F752061726520747279696E6720746F2064 PUSH1 0x44 DUP3 ADD MSTORE PUSH32 0x6F6E617465206973206E6F206C6F6E6765722061637469766500000000000000 PUSH1 0x64 DUP3 ADD MSTORE PUSH1 0x84 ADD PUSH2 0x65C JUMP JUMPDEST PUSH0 DUP2 DUP2 MSTORE PUSH1 0x2 PUSH1 0x20 MSTORE PUSH1 0x40 DUP2 KECCAK256 PUSH1 0x5 ADD DUP1 SLOAD CALLVALUE SWAP3 SWAP1 PUSH2 0xB26 SWAP1 DUP5 SWAP1 PUSH2 0xE97 JUMP JUMPDEST SWAP1 SWAP2 SSTORE POP POP POP JUMP JUMPDEST PUSH0 PUSH1 0x20 DUP3 DUP5 SUB SLT ISZERO PUSH2 0xB3E JUMPI PUSH0 DUP1 REVERT JUMPDEST POP CALLDATALOAD SWAP2 SWAP1 POP JUMP JUMPDEST PUSH0 DUP2 MLOAD DUP1 DUP5 MSTORE DUP1 PUSH1 0x20 DUP5 ADD PUSH1 0x20 DUP7 ADD MCOPY PUSH0 PUSH1 0x20 DUP3 DUP7 ADD ADD MSTORE PUSH1 0x20 PUSH1 0x1F NOT PUSH1 0x1F DUP4 ADD AND DUP6 ADD ADD SWAP2 POP POP SWAP3 SWAP2 POP POP JUMP JUMPDEST PUSH1 0x1 PUSH1 0x1 PUSH1 0xA0 SHL SUB DUP9 AND DUP2 MSTORE PUSH1 0xE0 PUSH1 0x20 DUP3 ADD DUP2 SWAP1 MSTORE PUSH0 SWAP1 PUSH2 0xB96 SWAP1 DUP4 ADD DUP10 PUSH2 0xB45 JUMP JUMPDEST DUP3 DUP2 SUB PUSH1 0x40 DUP5 ADD MSTORE PUSH2 0xBA8 DUP2 DUP10 PUSH2 0xB45 JUMP JUMPDEST SWAP1 POP DUP3 DUP2 SUB PUSH1 0x60 DUP5 ADD MSTORE PUSH2 0xBBC DUP2 DUP9 PUSH2 0xB45 JUMP JUMPDEST SWAP1 POP DUP3 DUP2 SUB PUSH1 0x80 DUP5 ADD MSTORE PUSH2 0xBD0 DUP2 DUP8 PUSH2 0xB45 JUMP JUMPDEST PUSH1 0xA0 DUP5 ADD SWAP6 SWAP1 SWAP6 MSTORE POP POP SWAP1 ISZERO ISZERO PUSH1 0xC0 SWAP1 SWAP2 ADD MSTORE SWAP6 SWAP5 POP POP POP POP POP JUMP JUMPDEST PUSH0 DUP1 DUP4 PUSH1 0x1F DUP5 ADD SLT PUSH2 0xBFC JUMPI PUSH0 DUP1 REVERT JUMPDEST POP DUP2 CALLDATALOAD PUSH8 0xFFFFFFFFFFFFFFFF DUP2 GT ISZERO PUSH2 0xC13 JUMPI PUSH0 DUP1 REVERT JUMPDEST PUSH1 0x20 DUP4 ADD SWAP2 POP DUP4 PUSH1 0x20 DUP3 DUP6 ADD ADD GT ISZERO PUSH2 0xC2A JUMPI PUSH0 DUP1 REVERT JUMPDEST SWAP3 POP SWAP3 SWAP1 POP JUMP JUMPDEST PUSH0 DUP1 PUSH0 DUP1 PUSH0 DUP1 PUSH0 DUP1 PUSH1 0x80 DUP10 DUP12 SUB SLT ISZERO PUSH2 0xC48 JUMPI PUSH0 DUP1 REVERT JUMPDEST DUP9 CALLDATALOAD PUSH8 0xFFFFFFFFFFFFFFFF DUP2 GT ISZERO PUSH2 0xC5E JUMPI PUSH0 DUP1 REVERT JUMPDEST PUSH2 0xC6A DUP12 DUP3 DUP13 ADD PUSH2 0xBEC JUMP JUMPDEST SWAP1 SWAP10 POP SWAP8 POP POP PUSH1 0x20 DUP10 ADD CALLDATALOAD PUSH8 0xFFFFFFFFFFFFFFFF DUP2 GT ISZERO PUSH2 0xC89 JUMPI PUSH0 DUP1 REVERT JUMPDEST PUSH2 0xC95 DUP12 DUP3 DUP13 ADD PUSH2 0xBEC JUMP JUMPDEST SWAP1 SWAP8 POP SWAP6 POP POP PUSH1 0x40 DUP10 ADD CALLDATALOAD PUSH8 0xFFFFFFFFFFFFFFFF DUP2 GT ISZERO PUSH2 0xCB4 JUMPI PUSH0 DUP1 REVERT JUMPDEST PUSH2 0xCC0 DUP12 DUP3 DUP13 ADD PUSH2 0xBEC JUMP JUMPDEST SWAP1 SWAP6 POP SWAP4 POP POP PUSH1 0x60 DUP10 ADD CALLDATALOAD PUSH8 0xFFFFFFFFFFFFFFFF DUP2 GT ISZERO PUSH2 0xCDF JUMPI PUSH0 DUP1 REVERT JUMPDEST PUSH2 0xCEB DUP12 DUP3 DUP13 ADD PUSH2 0xBEC JUMP JUMPDEST SWAP10 SWAP13 SWAP9 SWAP12 POP SWAP7 SWAP10 POP SWAP5 SWAP8 SWAP4 SWAP7 SWAP3 SWAP6 SWAP5 POP POP POP JUMP JUMPDEST PUSH1 0x1 DUP2 DUP2 SHR SWAP1 DUP3 AND DUP1 PUSH2 0xD13 JUMPI PUSH1 0x7F DUP3 AND SWAP2 POP JUMPDEST PUSH1 0x20 DUP3 LT DUP2 SUB PUSH2 0xD31 JUMPI PUSH4 0x4E487B71 PUSH1 0xE0 SHL PUSH0 MSTORE PUSH1 0x22 PUSH1 0x4 MSTORE PUSH1 0x24 PUSH0 REVERT JUMPDEST POP SWAP2 SWAP1 POP JUMP JUMPDEST PUSH4 0x4E487B71 PUSH1 0xE0 SHL PUSH0 MSTORE PUSH1 0x11 PUSH1 0x4 MSTORE PUSH1 0x24 PUSH0 REVERT JUMPDEST DUP2 DUP2 SUB DUP2 DUP2 GT ISZERO PUSH2 0xD5E JUMPI PUSH2 0xD5E PUSH2 0xD37 JUMP JUMPDEST SWAP3 SWAP2 POP POP JUMP JUMPDEST PUSH0 PUSH1 0x1 DUP3 ADD PUSH2 0xD75 JUMPI PUSH2 0xD75 PUSH2 0xD37 JUMP JUMPDEST POP PUSH1 0x1 ADD SWAP1 JUMP JUMPDEST PUSH4 0x4E487B71 PUSH1 0xE0 SHL PUSH0 MSTORE PUSH1 0x41 PUSH1 0x4 MSTORE PUSH1 0x24 PUSH0 REVERT JUMPDEST PUSH1 0x1F DUP3 GT ISZERO PUSH2 0xDD7 JUMPI DUP1 PUSH0 MSTORE PUSH1 0x20 PUSH0 KECCAK256 PUSH1 0x1F DUP5 ADD PUSH1 0x5 SHR DUP2 ADD PUSH1 0x20 DUP6 LT ISZERO PUSH2 0xDB5 JUMPI POP DUP1 JUMPDEST PUSH1 0x1F DUP5 ADD PUSH1 0x5 SHR DUP3 ADD SWAP2 POP JUMPDEST DUP2 DUP2 LT ISZERO PUSH2 0xDD4 JUMPI PUSH0 DUP2 SSTORE PUSH1 0x1 ADD PUSH2 0xDC1 JUMP JUMPDEST POP POP JUMPDEST POP POP POP JUMP JUMPDEST DUP2 MLOAD PUSH8 0xFFFFFFFFFFFFFFFF DUP2 GT ISZERO PUSH2 0xDF6 JUMPI PUSH2 0xDF6 PUSH2 0xD7C JUMP JUMPDEST PUSH2 0xE0A DUP2 PUSH2 0xE04 DUP5 SLOAD PUSH2 0xCFF JUMP JUMPDEST DUP5 PUSH2 0xD90 JUMP JUMPDEST PUSH1 0x20 PUSH1 0x1F DUP3 GT PUSH1 0x1 DUP2 EQ PUSH2 0xE3C JUMPI PUSH0 DUP4 ISZERO PUSH2 0xE25 JUMPI POP DUP5 DUP3 ADD MLOAD JUMPDEST PUSH0 NOT PUSH1 0x3 DUP6 SWAP1 SHL SHR NOT AND PUSH1 0x1 DUP5 SWAP1 SHL OR DUP5 SSTORE PUSH2 0xDD4 JUMP JUMPDEST PUSH0 DUP5 DUP2 MSTORE PUSH1 0x20 DUP2 KECCAK256 PUSH1 0x1F NOT DUP6 AND SWAP2 JUMPDEST DUP3 DUP2 LT ISZERO PUSH2 0xE6B JUMPI DUP8 DUP6 ADD MLOAD DUP3 SSTORE PUSH1 0x20 SWAP5 DUP6 ADD SWAP5 PUSH1 0x1 SWAP1 SWAP3 ADD SWAP2 ADD PUSH2 0xE4B JUMP JUMPDEST POP DUP5 DUP3 LT ISZERO PUSH2 0xE88 JUMPI DUP7 DUP5 ADD MLOAD PUSH0 NOT PUSH1 0x3 DUP8 SWAP1 SHL PUSH1 0xF8 AND SHR NOT AND DUP2 SSTORE JUMPDEST POP POP POP POP PUSH1 0x1 SWAP1 DUP2 SHL ADD SWAP1 SSTORE POP JUMP JUMPDEST DUP1 DUP3 ADD DUP1 DUP3 GT ISZERO PUSH2 0xD5E JUMPI PUSH2 0xD5E PUSH2 0xD37 JUMP INVALID LOG2 PUSH5 0x6970667358 0x22 SLT KECCAK256 CODESIZE PUSH24 0x88E726BCD75E90651E58E85C57470CEEFD5F2591FDA973C7 0xCC SWAP11 PUSH22 0x58A02464736F6C634300081A00330000000000000000 "
				},
				"gasEstimates": {
					"creation": {
						"codeDepositCost": "761600",
						"executionCost": "27900",
						"totalCost": "789500"
					},
					"external": {
						"addCampaign(string,string,string,string)": "infinite",
						"campaigns(uint256)": "infinite",
						"donate(uint256)": "26885",
						"fee()": "2337",
						"nextId()": "2316",
						"withdraw(uint256)": "infinite"
					}
				},
				"methodIdentifiers": {
					"addCampaign(string,string,string,string)": "ec671486",
					"campaigns(uint256)": "141961bc",
					"donate(uint256)": "f14faf6f",
					"fee()": "ddca3f43",
					"nextId()": "61b8ce8c",
					"withdraw(uint256)": "2e1a7d4d"
				}
			},
			"storageLayout": {
				"storage": [
					{
						"astId": 19,
						"contract": "contracts/DonateCrypto.sol:DonateCrypto",
						"label": "fee",
						"offset": 0,
						"slot": "0",
						"type": "t_uint256"
					},
					{
						"astId": 22,
						"contract": "contracts/DonateCrypto.sol:DonateCrypto",
						"label": "nextId",
						"offset": 0,
						"slot": "1",
						"type": "t_uint256"
					},
					{
						"astId": 27,
						"contract": "contracts/DonateCrypto.sol:DonateCrypto",
						"label": "campaigns",
						"offset": 0,
						"slot": "2",
						"type": "t_mapping(t_uint256,t_struct(Campaign)16_storage)"
					}
				],
				"types": {
					"t_address": {
						"encoding": "inplace",
						"label": "address",
						"numberOfBytes": "20"
					},
					"t_bool": {
						"encoding": "inplace",
						"label": "bool",
						"numberOfBytes": "1"
					},
					"t_mapping(t_uint256,t_struct(Campaign)16_storage)": {
						"encoding": "mapping",
						"key": "t_uint256",
						"label": "mapping(uint256 => struct Campaign)",
						"numberOfBytes": "32",
						"value": "t_struct(Campaign)16_storage"
					},
					"t_string_storage": {
						"encoding": "bytes",
						"label": "string",
						"numberOfBytes": "32"
					},
					"t_struct(Campaign)16_storage": {
						"encoding": "inplace",
						"label": "struct Campaign",
						"members": [
							{
								"astId": 3,
								"contract": "contracts/DonateCrypto.sol:DonateCrypto",
								"label": "author",
								"offset": 0,
								"slot": "0",
								"type": "t_address"
							},
							{
								"astId": 5,
								"contract": "contracts/DonateCrypto.sol:DonateCrypto",
								"label": "title",
								"offset": 0,
								"slot": "1",
								"type": "t_string_storage"
							},
							{
								"astId": 7,
								"contract": "contracts/DonateCrypto.sol:DonateCrypto",
								"label": "description",
								"offset": 0,
								"slot": "2",
								"type": "t_string_storage"
							},
							{
								"astId": 9,
								"contract": "contracts/DonateCrypto.sol:DonateCrypto",
								"label": "videoUrl",
								"offset": 0,
								"slot": "3",
								"type": "t_string_storage"
							},
							{
								"astId": 11,
								"contract": "contracts/DonateCrypto.sol:DonateCrypto",
								"label": "imageUrl",
								"offset": 0,
								"slot": "4",
								"type": "t_string_storage"
							},
							{
								"astId": 13,
								"contract": "contracts/DonateCrypto.sol:DonateCrypto",
								"label": "balance",
								"offset": 0,
								"slot": "5",
								"type": "t_uint256"
							},
							{
								"astId": 15,
								"contract": "contracts/DonateCrypto.sol:DonateCrypto",
								"label": "active",
								"offset": 0,
								"slot": "6",
								"type": "t_bool"
							}
						],
						"numberOfBytes": "224"
					},
					"t_uint256": {
						"encoding": "inplace",
						"label": "uint256",
						"numberOfBytes": "32"
					}
				}
			},
			"userdoc": {
				"kind": "user",
				"methods": {},
				"version": 1
			}
		}
	}
}